:400000000010002011000000F93A0000F93A000010B503F079FD0000F7B572B60122724B00211A7080227148D20005F06AFD80220021D2006E4805F064FD0022FF2511000B
:400040006C4E24366B4BD0584B000700284009184800013001333018AF43F31801900198834207D0581E0078C0190400187802332070F4E70432242AE4D15F4A5F4B6049CB
:400080001A60604A604B80241A60604A604B614D1A609922604BE4021A6099235F4A1B0413605F4A2C2013605E4A11605E4A3C2113605E4A13605E4A5E4B1A605E4A5F4BE8
:4000C0001A60F1225E4B12011A60C2225D4BD2001A605D4A5D4B1A605D4A5E4B1A605E4A13788B4328390B4313705C4A023113780B431370D2225A4B1A605A4A5A4B1A6094
:40010000D0225A4B1A605A4B893A1A60594A5A4B1A60A022594BD2001A60FF22584B1A60584A594B1A60F322584B1A60584A594B1A606022584B1A60584B553A1A60584A7B
:40014000584B1A602B6823432B6004F05FF8564A564B57491A602322564B09201A60564B133A1A60554B10321A602223544A1360544A136013220A6053490A603321534AEE
:400180001160534A534913602122534B1A608222524B12061A608022514B12062C601A60504A514B1A60514A514B1A60514A524B1A60524A524B1A60524A534B1A60534A81
:4001C000534B1A60534A544B1A60544A544B1A6003F0B2FF092003F0D1FF0022514B1A60514B1C60F7BDC0461C700F4000300F4000400F40847400000000FFFF00000140C0
:4002000000000445380800030400014003EE633F0C00014000010B401000014000500F4010500F4018500F4020500F4030500F400000016338500F404B44040458320F4032
:400240002001054060010540FD13000020000040E602000000800F4001700F4000700F400000044096EDD800080004401800044000010440B6BD1900080104400C01044016
:4002800000020440922449000802044000030440966DD800080304401803044000040440B20D0000080404400600008004010B4028020240080202400C0202401C02024046
:4002C00020020240240202402C0202403402024038020240E14400003C02024008010B40000002400500008040000240F301008004000240B70100C0440002402C04008024
:4003000008000240560100C04800024004000C80000102401E001A8040010240AF000080800102400C020B4000031A4010B5064C2378002B07D1054B002B02D0044800E0EE
:4003400000BF0123237010BDC001002000000000505C0000084B10B5002B03D00749084800E000BF07480368002B00D110BD064B002BFBD09847F9E700000000C4010020EA
:40038000505C0000C00000200000000010B562B603F09AFD2249002000F04AFE04F07EFA012005F019F803F003FC002003F0D4FC02F086FB01F0D4FC01F004FD02F08EFF7A
:4003C00001F0E4FF02F0ECFF04F080FD03F08AFA0221002003F0E8FF1249002004F030F80020012103F0F6FF012004F009F8082004F068F804F012FA0B4B984202D902F0F7
:40040000E9FF06E003F086FD002802D003F04EFEF8E702F025F802F065FF02F053F8E6E781110000FFFF00001027000010B5002004F0B2F8322003F0C9FE012004F0ACF8E2
:40044000782003F0C3FE10BD10B50400002004F097F8200003F0E6FB03F0D4FB10BD70B50D000400012004F08BF82900200003F00FFC03F0C7FB70BDF8B50578441C002DC6
:4004800019D02078FFF7E0FFA71C66787F24344021003800FFF7E3FF7F233C199E4307D02078661CFF2800D1F53003F08FFE3400013DEDB2E3E7F8BD10B50400012004F029
:4004C0005FF8200003F0AEFB03F09CFB10BD0000F0B5070000250E0085B02A2000920193FFF7B2FF114B009A1B7803ACDF1904219B182000E37025706770A570FFF7AFFFC7
:400500002B20FFF7A1FF0A4B019A1B7804219E1920009B18E37025706670A570FFF79FFF2C20FFF791FF05B0F0BDC046C4000020DC01002013B51400002817DB0C4B5A7807
:40054000904213DA002911DB9B7899420EDAC0B2C9B24B1C421CDBB2D2B2FFF7B9FF01A8230A022103704470FFF779FF13BDC046C4000020F0B587B01F000CAB1B881600AD
:400580000293002831DB1C4B5A7890422DDA00292BDB9B78994228DA002E26DBB24224DD002F22DBBB4220DDCBB20193C4B2FBB2F2B201992000FFF78BFF029B1B0A03938D
:4005C000A64215DB019DAF420CDB6B461B7B05A803706B461B7A022101354370EDB2FFF73EFFF0E70134E4B2EAE70120404200E0002007B0F0BDC046C400002073B506ACE4
:400600002688002819DB0E4C6578A84215DA002913DBA478A14210DA002A0EDB95420CDD002B0ADB9C4208DD904201D0994204D10096FFF79FFF002001E00120404276BDE6
:40064000C400002070B504003620FFF7FDFE03201E4D204068701E4C022816D0032816D08026012808D0C820FFF726FF002366702370A670203312E0A820FFF71DFF202327
:4006800066702370A670002309E0082000E06820FFF712FF80236370A370002323702B7080230C491A000C4800F034F80B49012000F02AFB0A49002000F026FB002000F09E
:4006C00031FB012000F02EFB70BDC046DC010020C400002035050000E402002075050000FD05000010B50400012003F055FF012003F046FFFFF79AFE0448FFF7BDFE044B60
:4007000020005C70FFF79EFF10BDC0465C5C0000DC01002010B5C380053B82801BB2053A0160C384C383042112B2030082848283012201844184403301001A705A7000231F
:400740000E4C0831C36283864386C3860387C363CC870124011D6442CC87811DCB874A31036143618361C3640B7043650B72C3650B74034B1860100010BDC0465D5C000040
:40078000E001002010B5044B1B682C3316C816C306C806C310BDC046E0010020F0B585B01F000AAB1B8802900C0016000393824201DA06000292A74202DA23003C001F0009
:4007C000124B1B681A005832127892070CD5039A210000925D6D32003B000298A847002802D110E0013424B2A7420CDB029DAE42F8DB064B28001B68039A1B6821000135C6
:4008000098472DB2F3E705B0F0BDC046E001002007B50021064B1A68D3889288013B013A00901BB212B20800FFF7B8FF07BDC046E0010020F0B58BB01E0010AB1B88039289
:400840000593404B07001B680C001A005032127892072ED4039B361BDD1B2DB2EA17AB18534006936B4636B218229B5EF2170393B318534007936B461C229B5E0122049343
:400880006B1E1D43731E1E432E4BED171B68F6171543324309921B68059A2100380008959847039B049A93420DDA049B00255E1042E0059A0092DB6C039A1D003300A84751
:4008C0000028C7D13BE00025039B5E10039B9D4235DA079B039AF618B3B21EB2B24205DC069A9E1A099B36B2E41824B2089B059AFB181FB2134B21001B6838001B6801353A
:4009000098472DB2E2E7069B049AF618B3B21EB2B24205DC079A9E1A089B36B2FB181FB2099B059AE418074B24B21B6821001B683800984701352DB2049B9D42E3DB0BB060
:40094000F0BDC046E0010020024B1B680433D8877047C046E0010020024B1B680633D8877047C046E0010020024B1B680420185E7047C046E0010020024B1B684033187086
:400980007047C046E0010020F0B58BB0029310AB1B880591060011000393119CD62815D007D8B52818D0C42814D0B02817D1F82615E0E4280CD003D8DC2810D19A260EE036
:4009C000F6280BD0FC280AD1812608E0992606E0842604E08E2602E0E62600E094266389B2B29A4200D23BE1A089904200D237E10620225E90B20190002800D130E1C008B7
:400A0000009090B2400702D00098013000902069002802D0F51A405D019088B2049091480068050060352D78AD0700D482E023898AB2013BD318059A019D013AAA181BB264
:400A4000C56D12B20598A84705902179002933D163890820225EF31A5343009A049153430821625E0499914200DBF9E0009A019DD2180792079A934219D02E005A1C069239
:400A80002268083ED75CB6B2002D0CD0012302981F4200D10398013D059BADB298477F08B542F1D100E02E00069B3500E2E7049A013292B20492D3E7012900D0D0E0658931
:400AC0000822A35E761B5E430623E55E00277543FF260822A35E9F4200DBC1E0019BEB1800932B00009A93421ED05A1C049222680298D35C802203995200D21A304031402B
:400B000051435843401802990012B1435943039B3040B3435343CB181B12B343184380B2059B9847049BDDE70622A35E0137ED18BFB2CEE72179002948D10821625EF31A84
:400B40005343009A049F5343049A0820215EBA1A92B28A4200DB83E06A46958A009AD2180992019A0792099A93422CD02E005A1C089222680836D35CB6B20693079B002B0C
:400B80001DD0384B069A9C46012339B228B21A4204D063461B68029A1B6803E063461B68039A1B689847069B01355B080693079BADB2013B9BB20793AE42DFD100E02E002C
:400BC000089B3500CFE77A1C97B2BDE7012947D1FF27F61A0823E55E6E437243049E0092049B0821625EF31A9BB2934238DA6B469D8A019B5B199BB20693009B069A9542BB
:400C000026D05A1C079222680398D15C029A80233A404A4338409446020002985B00B8435B1A414303985A43B84343436244CB1812121B12BB433A401A430A4B28B21B68C0
:400C400092B21B6831B201359847ADB2079BD5E70622A35E009A0136D3180093B6B2BFE70BB0F0BDE001002037B506AC2588044C246800952C340194FFF786FE37BDC046E4
:400C8000E0010020F0B50F001600050085B003903078002833D01B4B81B21A680136D38E9942F5D3148F8C42F2D30424115F0A2801D10D00ECE7D46B002C02D0C31AE45C67
:400CC00001E0548EE4B22B19994206DC4121938E5156039DCB18DF193FB2131D0632D28FDB8F290000923A00FFF7BEFF054B1B6840331B785BB21C1965192DB2C8E72800DA
:400D000005B0F0BDE0010020022807D8044BC0001B6818180323C164503003707047C046E001002002280AD8054BC0001B68181850300378DA0702D5022213430370704763
:400D4000E0010020F0B506001F00012485B0029103922100300004F0F3FB029B984202D3029B5C43F5E700230193002C25D02100300004F0E5FB21000500300004F066FCE6
:400D800020000E00029904F0DBFB019B0400002B03D1002D01DC0028E7D17A1C3023092D04DD03990733002900D120335D19019B3D70013301931700D7E73C7005B0F0BD8A
:400DC000F0B506001F00012485B0029103922100300004F0B5FB029B984202D3029B5C43F5E700230193002C25D02100300004F0A7FB21000500300004F028FC20000E00F3
:400E0000029904F09DFB019B0400002B03D1002D01DC0028E7D17A1C3023092D04DD03990733002900D120335D19019B3D70013301931700D7E73C7005B0F0BDF7B50F00BA
:400E4000302106000191002B01D120330193089D2B001978002901D1140004E00133002A08DD013AF5E7002C04DD01993000B847013CF8E701356B1E1978002902D030008A
:400E8000B847F7E7F7BD03685A1C026019707047F0B5070015001C008BB002912978002900D1C2E0252901D001357FE06A78302A02D0AE1C002302E00123AA78EE1C0493BE
:400EC000002303931300303B092B18D831000A201300303BDDB20E00092D06D8039A4243D31803930A780131F2E7313B052B03D91300413B052B02D80A330A2BEEDD6C2AF9
:400F000036D13278751C632A35D006D8252A4CD0582A0CD0002AC1D187E0732A37D002D8642A74D0BAE7752A52D0782AB6D11021583A53425A41261D07AB2068FFF702FFD1
:400F400034000CE0582A35D1583A251D53425A41206807AB10212C00FFF732FF350007AB0093039A049B02993800FFF767FF95E7632A07D1350021683800C9B2029B261DF0
:400F800098470DE0632A0DD9732A17D135002368039A0093029900233800261DFFF74EFF34007BE7252ACDD1350025213800029B984773E7002A38D035006FE7732A02D8C1
:400FC000642A15D0F8E7752A07D0782ABCD0F3E7261D07AB00220A21AFE700220A21231D2068059307ABFFF7EBFE3500059CB6E72068231D059307AB002805DA2D221A70A6
:401000000D2304AA40429B1800220A21EBE72068261D07AB002805DA2D221A700D2304AA40429B1800220A2188E70BB0F0BD0000014B196058607047EC0100200FB407B52A
:40104000054804AB04CB016840680193FFF720FF03B008BC04B01847EC0100200EB40FB505AB04CB0190064901A80393FFF710FF0023019A137004B008BC03B01847C0465A
:40108000870E0000F0B50E001C0085B001902100150033000A9F0C001E002A003B00AE4204DD270035001C001600F6E7019B9E4247DA9D4247DDA74245D0AE4207D1E00FD4
:4010C0000419F80FC01964104710E0193CE0381BC217831853400293019B02999B1B1B48039304F0B7FA039B984204DB174B72425B1B934213DAF30F9B195A10EB0F5B1966
:40110000E10F09195B109B184A10F90FC9194910019889180A911A009842BCDCB7E7AD1B039B029E013301365E43691CA81904F007FAA74202DD013C201805E00134201A05
:4011400002E0200000E0380005B0F0BDFFFFFF7F70B50E0009491500040004F0F1F907493060200004F072FAF531FF310800FA21890004F0E5F9286070BDC04660EA0000C2
:4011800010B5080002F0D4FE10BD000010B50300411809488B420ED01A78040A544022095440A2B200026040140360405201504080B20133EEE710BDFFFF000007B53C2112
:4011C000054B3C2200934942044BFFF75BFF80B203F0FAFD07BDC04633430000CD1C000003003C3310B5782B01D8FFF7E7FF10BD10B50400002004F0E3F803F00BFEE1202E
:40120000400003F0D7FA054B18602000FFF7E8FF0022034B1A7004F0EBF810BD9002002094020020002800D10130044B1870044B1A78002A01D101321A707047C7000020A6
:401240009402002070B5224C2378022B12D0032B2DD0012B3AD1E1211E4B4900186803F0E3FA1D4B5B78002B02D03C20FFF7A6FF02232AE0174D286803F0B8FA002825D001
:40128000154B03261A785B78012A03D90520002B06D002E0002B03D03C204042FFF78EFFE12128684900267003F0BEFA0EE0094B186803F09BFA002808D0074A1378013B54
:4012C000DBB21370002B00D001232370207870BD9402002090020020C700002070B5264C23686268F53BFF3B934207D2A368462B02D9A368013B00E04623A360FA23626843
:401300005B009A4207D82C23A268FF339A4202D8A3680133A360A368E268934206D0A068002180B203F044F9A368E360237C002B02D0002323741AE06368002B06D05520AA
:4013400003F084F96368013B636013E00B4D2B78012B0CD1637C002B06D0637C084AD318013B187803F072F900232B7002E0022002F00EFF70BDC046F4010020AD0200203E
:40138000246C000037B596200021400003F010F902F01CFC002003F0A9FA002003F02CFE002003F0AFFA002003F0C4FA012004F027F8642002F00AFF002004F021F86420B0
:4013C00002F004FF02F0F4FB104C0025200000F0BFF80323FA2223706B33920040210195009320005A3B00F0B3FB012003F0A2F903F01EF9022002F0CBFE03F0B1FC04486B
:4014000003F09AFC034B1D7037BDC04698020020DD120000AD02002070B5022002F0AEFE134C6368042B14D86368002B06D0552003F00CF96368013B6360F5E7637C002BC3
:4014400015D0637C0B4AD318013B187803F0FEF80DE001220525084B1A70552003F0F6F86368013D013BEDB26360002DF5D170BDF4010020246C0000AD02002070B50500E1
:401480000120114B0C00197881421BD06543100003F050F90521280004F052F80B4C05216060280004F0D2F89625C9B2617463686D0028000021236003F07AF8A560FFF752
:4014C000ABFF002070BDC046AD020020F401002010B5022002F05CFE03F0E8F80023034A53605374024A137010BDC046F4010020AD02002010B5002803D00122024B1A74D7
:4015000001E0FFF789FF10BDF4010020014B18787047C046AD02002010B500F083FB10BD10B500F087FB10BD10B500F0A3FB10BD10B500F0FDFB10BD10B503F029FF03235E
:401540001840024B187003F02BFF10BD08020020024B1860012040427047C046B0020020F0B585B00D00070003F05CFD03F06CFD6B469E1D308030880021023080B203F051
:4015800059FD03F045FD1B4B02AC1B68187802F0E3FB80235B421F43277001272B0E63702B0CA3702B0AE370257102F07DFB124D002802D02B683B42F7D10521200002F001
:4015C00067FB01232C681C40FCD102F015FB0B4D687002F017FB03F025FD3088210080B203F028FD03F014FD200002F0B5FB687805B0F0BDB00200202400074008020020CB
:401600007FB503F00FFD03F01FFD6B469D1D288028880021023080B203F00CFD03F0F8FC0522002102A804F06CFA012402F03CFB134E002802D033682342F7D1114B1B68A1
:40164000187802F089FB052102A802F021FB012334681C40FCD102F0CFFA0B4E707002F0D1FA03F0DFFC2888210080B203F0E2FC03F0CEFC200002F06FFB707804B070BD48
:4016800024000740B002002008020020F0B587B006000C0003F0C6FC03F0D6FC02ABD880D8880021023080B204AD03F0C3FC03F0AFFC05220021280004F023FA7F231E40EF
:4016C0006B46012701961B792B7002F0EDFA2E4E002802D033683B42F7D12C4B1B68187802F03AFB0521280002F0D2FA012332681A42FCD102F080FA254F787002F082FA42
:401700006B461B792B7002F0CFFA002803D0012233681342F7D10521280002F0B9FA012335681D40FCD102F067FA787002F064FAFF2300021B021840206002F05DFAFF2648
:401740002368304018430002206002F055FA2368304018430002206002F04EFA236806401E43266002F04EFA03F05CFC02ABD888290080B203F05EFC03F04AFC280002F0F9
:40178000EBFA787807B0F0BD24000740B00200200802002073B50C001600050001A9FFF775FF019928004C4034406140FFF7D8FE014B587876BDC04608020020012210B590
:4017C000824081400020FFF7E5FF014B587810BD08020020054B10B51A5C814082406C20FFF7D8FF024B587810BDC046C26C00000802002010B501000020FFF7DFFF014BA4
:40180000587810BD0802002010B501000220FFF7D5FF014B587810BD0802002010B501000520FFF7CBFF014B587810BD0802002010B501000B20FFF7C1FF014B587810BDCE
:401840000802002010B501000C20FFF7B7FF014B587810BD0802002010B501000D20FFF7ADFF014B587810BD0802002010B5F8241F2364010902034021401943F023080037
:401880001B031104194001431020FFF769FE014B587810BD0802002010B501001120FFF75FFE014B587810BD0802002010B50103090B1120FFF754FE014B587810BDC04616
:4018C0000802002010B50103090B1420FFF748FE014B587810BDC0460802002010B50103090B1520FFF73CFE014B587810BDC0460802002010B501001C20FFF76BFF014B4F
:40190000587810BD0802002010B50521082819D009D80231022815D00139042812D0023101280ED10EE0032120280BD003D80131102807D005E00221402803D001398028C0
:4019400000D000211820FFF745FF014B587810BD0802002010B501001120FFF73BFF014B587810BD0802002007B56C2001A9FFF78DFE019B9803C00F0EBD0000F7B50023A4
:401980000192214A03F072FF089C099D1422002312196B4103F06AFF06000F0000211B481B4A80197941002303F040FF01246442E51724184D41002D12D10F2C10D8012064
:4019C000FFF7C8FF00211348134A80197941002303F02CFF01246442E51724184D4106E0FFF7C2FF002802D00020FFF7B3FF0198E4B260436421323003F02CFE08222100AC
:401A0000C0B2FFF733FFF7BD78E706004088DB608010B7C100E9A43500D2496B10B501000F20FFF7D7FE014B587810BD0802002010B501000720FFF7CDFE014B587810BD36
:401A40000802002010B501000420FFF7C3FE014B587810BD0802002010B501000020FFF7B9FE014B587810BD0802002010B5064CA378584001405940C9B26D20A170FFF72F
:401A80006FFD607810BDC046080200200B008340044A10B5115C81401800FFF7E7FF024B587810BDA96C00000802002010B501001820FFF7EBFF014B587810BD08020020C8
:401AC00010B501001020FFF7E1FF014B587810BD0802002010B5064CE378584001405940C9B27020E170FFF73BFD607810BDC046080200200B008340044A10B5115C8140B5
:401B00001800FFF7E7FF024B587810BD936C00000802002010B501001220FFF7EBFF014B587810BD0802002010B501000820FFF7E1FF014B587810BD0802002010B5010016
:401B40000020FFF7D7FF014B587810BD08020020F0B51600002487B003930CAB1F880DAB1D782B4B18600800FFF7CEFE0120FFF769FE0120FFF770FE0020FFF73BFE039A68
:401B80002100300000970194FFF7F8FE7F20FFF783FE2800FFF738FE0120FFF7BBFF0A20FFF7C2FFFF20FFF7C9FF0120FFF7A2FE0420FFF751FF0220FFF730FF0420FFF741
:401BC00041FF144D2000FFF733FF0120FFF726FE2800FFF76BFE0120FFF768FF2800FFF77DFE0D48FFF76EFE0C20FFF769FF0120FFF71EFE05A90120FFF748FD03F0C2FBF5
:401C0000064803F0ADFB064B1C7007B0F0BDC046B0020020FFFF0F00FF1F000039150000080200200022024B18781A70C0B270470802002013B56F2001A9FFF727FD01A95E
:401C40000120FFF723FD0020FFF706FF0420FFF703FF03F09DFB0323054C18402070FFF7CFFC0F22237810401B011843C0B216BD0802002037B5012401A96F20FFF706FD06
:401C8000019B1F25D90F1F48FFF7D8F9019B1E48990F2140FFF7D2F9019B1C48590F2140FFF7CCF9019B1A48190F2140FFF7C6F9019B1848D90E2140FFF7C0F9019B1648B5
:401CC000990E2140FFF7BAF9019B1448590E2140FFF7B4F9019B1248190E2140FFF7AEF9019B1048190C2940FFF7A8F9019B0E48D90B2140FFF7A2F901990C482940FFF787
:401D00009DF937BD296C0000356C00003E6C0000476C0000516C00005B6C0000656C00006D6C0000786C0000806C00008B6C000007B56F2001A9FFF7A9FC01980EBD00009D
:401D40000122014B1A7070470C020020012210B5024B5A7001F0F8FA10BDC0460C02002010B502F0DBF9064802F0C6F902F08CFF044802F077FF044803F06CF910BDC04670
:401D80004D1D0000411D0000C90000200221044B1A780A431A701A7849180A431A7070470E0200200421064B1A780A4202D01A788A4302E001211A780A431A707047C04637
:401DC0000E02002010B502F02BFE094802F048FE084802F0CBFD9620400002F0F7F902F0D7FD02F04FFE0022034B1A7010BDC046A51D00008D1D00000E0200200120034B8B
:401E000019781A7882431A70084070470E0200200221044B18781A7880078A43C00F1A707047C0460E02002010B5322003F07EF80022014B1A7010BDD900002070B506006A
:401E4000182001F05DFD0C4D04000C486E70FFF7F5F86A780823002A03D01C43E4B2084802E09C430748E4B2FFF7E8F82100182001F0C0FD70BDC046D9000020FB6C000008
:401E8000086D00000D6D0000014B1878C0B27047100200200A4B70B51A780124002A0CD01A78052A09D8072200251A70054B9D60FFF70EFB044B1C702C00200070BDC046A5
:401EC00010020020B80200204803002070B5144C01252378002B20D02378042B1DD8114B186802F083FC104B1A68101818600F4B186802F07BFC0E4B65701A6810181860EE
:401F00002378DBB2A370FFF79DF9002801D1052323700120FFF7EEFA0025280070BDC04610020020B4020020D4020020DC020020D802002070B50E4D01202B78052B12D159
:401F400000240C4B0021186802F06EFC0A4B0021186802F069FCAB782000DBB22B706C70FFF7C8FA20000122044B1A7070BDC04610020020B4020020DC02002048030020DD
:401F800000200122074B18615861D86098609880054B1860054B1860054B1870054B1A707047C046B8020020D4020020D80200201002002048030020FA2200239201904208
:401FC00003D8034B80B21880012318007047C046B8020020FA2200239201904203D8034B80B25880012318007047C046B802002010B5064B9878FFF715F9FFF723F900280D
:4020000003D0082002F05EFAF7E710BDD900002070B50C000500080002F08CFB074B220019682800FFF72AFAFFF770FA002803D0082002F047FAF7E770BDC046E002002000
:40204000094B10B500221968FFF718FAFFF75EFA041E03D0082002F035FAF7E7012002F069FB200010BDC046E0020020014B98687047C046B8020020014B18687047C0465A
:40208000D4020020024B58684001C00F7047C04610020020014B1878C0B27047D9000020014BD8687047C046B8020020014B588880B27047B8020020014B988880B27047B9
:4020C000B8020020014B188880B27047B8020020014B187A7047C04610020020014B58697047C046B8020020024B58881B8858437047C046B80200200922034B1A70034B93
:40210000083A1A707047C04610020020480300200822034B1A70034B073A1A707047C046100200204803002010B5FFF729FF0022024B1A70024B01321A7010BD100200201F
:402140004803002010B50A4B1A7A1C00012A02D1002002F0EBFE02F0EFFE064B312802D9227A002A00D001221A701878C0B210BD10020020D900002070B5150004AA12781E
:4021800004000026805F012A06D0002A02D0022A18D025E0012212E0124AD27855426A41524210400A2250430918994201DC218004E00122FF21A52001F0CCF80022094BCF
:4021C000DA700DE0074B0A21DB785A4253415B421840053003F03EFAA842EADB2080EDE770BDC046D900002037B505000024042817D80D4B01A91A888000120A0A701A8878
:4022000001344A705A88120A8A705B880422CB7001F02AFC042D04D022000449032001F099F820003EBDC046B80200205555000010B5114C2378002B03D023780120062BF6
:4022400016D1FFF79DFE0420FFF7CEFF012323700A4B0021186802F0E7FA094B0021186802F0E2FA074B0021186802F0DDFA00200122054B1A7010BD10020020D0020020F2
:40228000DC020020B4020020480300200A4B70B51B7804000D000120002B09D1FFF770FE064BADB2A4B204205D801C80FFF79CFF0122034B1A7070BD10020020B8020020CF
:4022C0004803002013B501AC21000422800001F04BFBA278E37812029A18094B92B25A8022786178120200208A1892B21A80012298809860D86018615861024B1A7016BDE5
:40230000B80200204803002010B50024084B04201C70FFF7D7FF0222064B20001A70064B9C801C619C60DC605C61044B1C6010BD1002002048030020B8020020D40200209D
:4023400010B504000020032C0ED8183001F0D8FA06236100984319400143C9B2182001F049FB0120014B9C7010BDC046D900002007B5042201A9142001F0F6FA019B18BA16
:40238000830E80011B06000A18430EBD10B5FEF7F9FF3C204042FEF72BFF02F0F3FD02F023FE194802F00CFEFFF7E2FF174B1860FFF7AAFF012002F0FDF9154B1860FA206E
:4023C000800002F0F7F9134B1860134802F0F2F9124B1860182001F093FA01210300104A0B4001D0117200E0137243070D499B0F8B700823184002D0073B4B7000E0487030
:402400000023137010BDC046291E0000E0020020DC020020B402002050C30000D002002010020020D900002070B50B4B0B4D1A781C00002A08D0002323702B7002F066FEAC
:4024400002F076FE012006E02B78002BF3D1FFF7D5FC0028EFD170BD0D0200200C02002010B5FFF7CBFC002815D0154B1878C0B2072810D803F050F804070707070A0F0D9B
:40248000FFF7D6FE07E0FFF721FD04E0FFF752FD01E0FFF739FFFFF7BBFC00280FD0FFF73FF8074B1B78DBB2002B08D0052B04D90A2B04D1FFF734F801E0FFF7EBFC10BD05
:4024C00010020020F0B587B0FFF7CAFFFFF73AFEBF4EC04C3078217AC0B200F001FBFFF7D1FD051E09D0642002F0CAFCFFF720F8606002F093F9E06009E002F08FF9E368F1
:40250000C01AB54B984202D9280002F0B9FCB34D287800F0EDFD2078C0B20B2800D9A1E203F004F80C007A00A700C500DB00800114019E013102DF01B7018602012702F0CC
:40254000DBFD00282FD00F2502F0FAFD02ABED1828702B78DBB22A2B09D004D8232BEED1FFF7D6FDEBE7413B032B0CD9E7E702F021FF002804D170787840FFF75FFCDEE7F1
:40258000FFF7BAFDDBE702F015FF002805D128784138C0B2FFF728FED1E728784138C0B2FFF790FECBE701250B2602F0B7FD00287AD002F0DBFD0F2302AA9B1818701B78A3
:4025C000DBB2302B11D009D8232B20D02A2BECD1FFF7AAFD3220FFF733FDE6E7392BE4D80020267000F0DAFDDFE7237A18206B40237201F085F90300227AAB43D9B2002AD6
:4026000001D02843C1B2182001F0F4F9CDE7FFF78BFDFFF7EDFCC8E702F078FD02F088FD3378002B01D1FFF751FC6D4B59881A0000290DD0198800290AD01888694B80B269
:4026400001221968FEF71AFF002806D00A2302E00023D3600633237004E2634D286802F0C5F8011EF2D102232868237002F0DCF8F8E13378002B01D1FFF728FCFEF746FFDF
:40268000002804D1B078FEF7CDFD03232370FEF74FFF6060FEF740FF002801D00A23237002F034FD02F044FD00232374DAE13378002B01D1FFF70AFCFEF7C4FD002807D168
:4026C0006378002B02D06070052300E0042323700023237402F01AFDA1E0444B186802F085F80021424A13681160C0183C4BD86019885A698A185A619A88013292B29A800A
:4027000099885A88914201D3062200E001222270D9681A698A181A615A889888D968121A4A439A6099885A8889B292B23148DB68FEF784FC01232B7002F0E8FC02F0F8FC2D
:402740003378002BB0D1FFF7C1FBADE7237C002B28D1294B0126186802F048F8274B33211A682E70101818600322552000F0F2FD2348FEF763FC2348FEF760FC267411E0A7
:402780000F2502F0DDFC02ABED182870FFF7F8FB2B78DBB2392B0FD8302B15D2232B06D1FFF7B6FC02F0A8FC0028E9D12CE02A2BF8D1FFF7A1FCF5E7413B032BF2D8287838
:4027C0004138C0B2FFF77EFD00232370EAE7C046D9000020100200200F27000048030020B8020020E0020020D0020020DC020020D8020020626D0000B4020020D4020020C3
:40280000896D00009B6D0000FFF7F8FA002802D0FFF7B6FB03E0FFF7FBFA0028F8D102F087FC1FE1012602F079FC00280CD002F09DFC0F2302AA9B1818701B78302BF2D1F6
:40284000237A73402372EEE7237C002B05D10133894823742B70FEF7F1FB02F057FC01E1237C002B0DD10126844B2674186801F0BDFF834B2E701A68101818608148FEF70E
:40288000DDFBFFF7D1FD002800D1EBE0FFF778FBE8E0237C002B0BD1012605225521FF202E7000F057FD3000FEF724FEFEF73CFE01232374FFF7A2FA002803D0FEF738FE33
:4028C00000F0B0FCFFF7A4FA002800D1CAE0FFF7E1FA0020FEF70EFEFEF722FEFFF750FBBEE0012702F008FC00283CD002F028FC0F2202ABD21810701378DBB22A2B15D01D
:4029000006D8232BEED12F70F770FFF70DFCE9E7303B092BE6D8FA2311789B01303909B2009700225848FFF727FC0EE0022300220093110008335448FFF71EFC534B1888A4
:40294000598880B289B2FFF7A1FC2F70CAE702F00DFC0F2302AA9B1818701B78DBB2232B06D1FFF7E1FB02F0D9FB0028EFD179E02A2BF8D1FFF7D8FB012000F0B9FB3220F6
:40298000FFF75EFBEFE7424B1A780393002A45D0012702F0B1FB00282CD002F0D1FB0F2202ABD21810701378DBB22A2B18D00CD8232BEED1354BF7701888598880B289B2F3
:4029C000FFF764FCFFF7B0FBE3E7303B092BE0D8FA2311789B01303909B20097002204E0002202231100009308332848FFF7C4FB2F70CEE7039B187010E002F0B7FB0F2331
:402A000002AA9B1818701B78DBB2232B0BD1FFF78BFB012000F06CFBFFF7EAFA02F07EFB0028EAD11EE02A2BF8D1FFF77DFBF5E702F062FB002809D002F068FB0123607C3E
:402A40000130C0B26074184000F0A8FB02F066FB002807D002F05AFB02F06AFBFFF764FB02232B7001F0DAFE63690A4AC31A934200D9606107B0F0BD9E6D0000B402002075
:402A8000D4020020AE6D0000BA020020B80200200D020020E703000010B50648FEF7CEFA19220549002000F0DFFF0448FEF7C6FA10BDC046BF6D0000E26C0000D26D000062
:402AC00010B50120FDF70EFE0020FDF7A1FE0348FDF73AFF0020FDF73FFF10BDE0FF000070B5164B05001A780C00824205D15A788A4202D19A78002A1FD000201D705C70EF
:402B0000FDF722FF002D09D0002C01D00C4801E0FC20C000FDF720FF0A4A04E0F8200002FDF71AFF084A72216120FEF7ABF80020FDF712FF0548FDF707FF70BDDE00002065
:402B40003EE70000DA6D0000E16D0000E0FF000013B50020FDF75CFE0420FDF70DFF0F48FDF710FE0020FDF7F7FE0D48FDF7ECFE0C4A00210720FEF785F80020FDF7FCFEAF
:402B8000FDF7F2FE0D23084C0200190000940020FDF750FE2000FDF7D7FE13BD705D0000FF070000E86D0000E0FF000073B5FFF76BF9224C0600E378834202D1A378002BAD
:402BC0003AD0092E14D11E48FDF7C6FE0020FDF7BBFE1C4A12210020FEF754F80020FDF7BBFE1748FDF7B0FE174A12213C2020E0082E1BD11248FDF7AFFE0020FDF7A4FE39
:402C0000124A12210020FEF73DF80025FDF7ACFE1E230200122100956920FDF7BFFD0848FDF792FE2800FDF797FE04E012210020074AFEF727F8E67073BDC046DE00002009
:402C4000E0FF0000F66D0000256E0000036E0000196E000070B5FFF717F9284D06002B79834202D1AB78002B47D0254C0D2E38D8300002F051FC07090909090E131C272561
:402C80002A2727271F4A28E01F48FDF75DFE1F4A23E01F48FDF758FE1E4A1EE0FC20C000FDF75AFE0020FDF74FFE1B4A15E0F8200002FDF751FE0020FDF746FE174A0CE0E6
:402CC000174A0AE0002323700BE0F8200002FDF743FE0020FDF738FE124A13492000FEF7BDF9220012214C20FDF7CCFF0020FDF733FE0748FDF728FE2E7170BDDE000020D4
:402D0000490300202A6E0000FF070000386E0000E0FF0000416E0000496E0000546E0000AD6D00005C6E0000336E000070B5FFF7ABF8092802D1FFF7B9F906E0082802D104
:402D4000FFF7C0F901E0FFF7B7F9124C0500E388834202D1A378002B1BD00F4E2A0030000E49FEF77BF90E48FDF70CFD320000232C26581CD3181978202902D11E70030078
:402D8000F7E71E210420FDF77DFF0648FDF7FAFCE58070BDDE00002049030020646E0000485D0000705D000070B5FFF77FF90A4C06002389834202D1A378002B0BD0074D42
:402DC000320007492800FEF749F92A0045210020FDF758FF268170BDDE00002049030020686E000070B5FFF76DF90A4C06006389834202D1A378002B0BD0074D320007498B
:402E00002800FEF72BF92A0053210020FDF73AFF668170BDDE00002049030020766E0000F8B504000D00002802D11C4A1C4904E01C4B984205D802001B491C48FEF70EF9B8
:402E40002AE01B4EB04212D9310002F0FFFBF531FF310800FA21890002F072FB31000700200002F06DFB3B000200124911E0FA21890002F0EBFB32310800642102F060FB90
:402E8000FA2106008900200002F05AFB3300020009492800FEF7E2F8F8BDC046AD6D0000886E0000E7030000287400004903002040420F008B6E0000936E000030B589B01D
:402EC000FEF7E2FF092204001B4902A802F010FE09221A4905A802F00BFE002C03D0083CE4B2012C03D8FFF7FFF802AC02E0FFF7F5F805AC431C03D1114B9B78002B18D0E2
:402F0000104D2900FFF78CFF220053215620FDF7B9FE2A0045215620FDF7B4FE0400FDF723FD002302000093452151332000FDF735FC09B030BDC0469A6E0000A36E000063
:402F4000DE0000204903002073B5FEF79DFF0500FFF78CF8AB1FDBB206001C4C012B17D8237BAB4202D1A378002B04D0184A61210020FDF787FEFFF77FF83C2102F066FBBD
:402F80000191FFF779F83C2102F0DAFA00900FE0237BAB4202D1A378002B04D00D4A61210020FDF76FFE01AA69463000FEF7D0F82573094C019B009A20000849FEF74EF88E
:402FC000220061214C20FDF75DFE73BDDE000020AC6E0000BA6E000049030020C86E000037B5FEF751FF354C0500637B834202D1A378002B60D0FDF7B7FC314B0200009305
:403000006E2300201900FDF715FC2E48FDF79CFC0A2D4DD8280002F07FFA064B4B4B4B4B262632323E00284A72210020FDF72AFE2648FDF7A7FB264A72211620FDF722FED3
:40304000244A72211F20FDF71DFE234A72213B20FDF718FE2148FDF795FB214A72214520FDF710FE24E01F4A72210020FDF70AFE00236022009372217E33412016E01A4AF7
:4030800072210020FDF7FEFD00236022009372217E335A200AE0154A72210020FDF7F2FD002360227221562000937E33FDF776FB0348FDF749FC657337BDC046DE000020EE
:4030C000E0FF0000FF070000D46E00005C5D0000DA6E0000DD6E0000E26E0000705D0000E56E0000EB6E0000F96E00000C6F000073B500284AD0264E022814D10123B3707E
:40310000FFF726FD4F22234B4621100000936023FDF790FBFEF7BEFF0400FEF7D9FF01002000FFF7DDFCFFF741FDFFF793FDFFF7FDFDFFF739FEFFF755FEFFF7BFFEFFF74F
:4031400003FFFFF74DFFFEF79DFF051E0DD0FDF70BFC0400FDF708FCF823053C1B020200009320B2052300210AE0FDF7FDFB0400FDF7FAFB05232900053C0200009520B29C
:40318000FDF70CFB0023044AB370137073BDC046DE000020E0FF000048030020F7B504000020FDF735FB0420FDF7E6FB1948FDF7E9FA0020FDF7D0FB1748FDF7C5FB012344
:4031C0001C4009335C43154FA400E25900210720FDF758FDFDF7C8FB0D23114D0200190000950020FDF726FB0020FDF7C5FB2800FDF7AAFB12250026A319FB1829B25A683C
:4032000000200C350436FDF73DFDADB2242EF3D1F7BDC046705D0000FF070000EC000020E0FF000070B504000020FDF7F1FAFFF78FFC0420FDF7A0FB224A12210020FDF7C9
:4032400021FD0020FDF798FBF8200002FDF77CFB0020230204D51C4A1E21FDF713FD0120A3020AD50D21451C48430100EDB21E31164A0020FDF706FD280063020AD50D217E
:40328000451C48430100EDB21E31114A0020FDF7F9FC2800A3010AD50D21451C48430100EDB21E310B4A0020FDF7ECFC2800E30107D50D2148430100074A1E310020FDF774
:4032C000E1FC70BD1E6F00002B6F0000416F00004B6F0000556F0000646F000010B501F005FD10BD70B5154C154B2268002A21D01A78002A1ED001F091FA63680500C31AB9
:40330000632B19D92389A27A00201341DB0701D50C4B187801F0F8FCA37A65600133DBB20F2B01D0A37207E00023A3722368013B236001E000221A7070BDC0462802002017
:40334000630300203C01002010B5012001F0DCFC10BD0000044B1A60044A198110700122034B1A707047C046280200203C0100206303002010B50748FDF760FE064C200000
:40338000FDF75CFE2000FDF759FE044800F044F910BDC046FF700000AB6D00006803002010B500F071FAFFF7E5FF0748FDF746FE00231900054A064813601A180133117042
:4033C0000F2BFAD110BDC0469B6D00006403002068030020F0B5002485B0039400F050FA0F21594D0090594E286803AA091A801900F04CFA039BA34200D1A2E02A689B18B5
:403400002B60325D0D2A04D0A34200D18EE00134F7E7A34200D889E0002C00DA86E001235B429C4600272C257D43009B5D192A68002A48D06346013357D12B794349019315
:403440000023CE5CD05C0133864209D10A2B09D03E48C05C0D2805D02026B043F1D101E0002200E00122019999422AD1002A28D06B79002B02D13648FDF7E0FDAB683348F1
:4034800098476B79002B1AD1314E00280ED03148FDF7D4FD2D48FDF7D1FD3000FDF7CEFD2D48FDF7CBFD28000C3003E03000FDF7C5FD2A48FDF7C2FD3000FDF7BFFDBC46E5
:4034C000B1E70137AFE7002C0FD0634601330CD16B79002B09D11E4E3000FDF7AFFD2048FDF7ACFD3000FDF7A9FD174A23001000164916680F1B1A1B9E4203D9CA5CFA54AD
:403500000133F8E7002411490E2A03D857183C700132F9E7F31A03606B79002B11D10C48FDF78CFD0F48FDF789FD0AE00E2B08D900231900F218013311700F2BFAD100238F
:403540002B6005B0F0BDC0466403002068030020AB6D00001E710000267100002D710000307100009B6D000073B50E000024050002F092FA2200046001A9280002F05CFB43
:40358000019A3060230095420ED01278A2420BD1064BC0180123C21C06D902F07DFA0368223B581E8341DBB2180076BDFFFFFF7F73B500252B008D420BD00F2B06D0C45CA3
:4035C0000133203C664274412D19F4E70023102404E000240F2B01D123001034C31800201D780D2D08D0202D06D0072806D06946455401301D5CF4E7072801D1102409E036
:40360000002C07D16B4611001C546846FFF7ACFF0028F3D0200076BD0C4BA82270B51C0092000C349D1823000C3B1868FDF706FD0748FDF703FD2000FDF700FD2C340548FC
:40364000FDF7FCFCAC42EED1002070BD4471000004740000AB6D000010B50248FDF7EEFC002010BD706F000010B5FDF75DFF002010BD000010B5FFF70FFA0248FDF7DEFC88
:40368000002010BDAB6D000013B5012101AAFFF78FFF019B1024D8B2FEF752FE002804D001990448FDF7CAFC00240348FDF7C6FC200016BD08740000AB6D000030B587B0E9
:4036C000FEF7E2FB002501AC20706570FEF7EEFC030AA370E070FEF7F5FC030A23716071FEF7EAFC030AA371E071FEF7BFFC030E2372030C6372030AA372E072FEF7D0FC5E
:40370000030E2373030C6373E073030A10212000A373FDF73BFD1221030A60742000237400F03CFC280007B030BD000013B5012101AAFFF73DFF019904000948FDF77EFC27
:403740000848FDF77BFC00210198FEF761FC0300FF20002B03D1601E84416042C0B216BD21740000AB6D000013B5012101AAFFF71FFF019904000948FDF760FC0848FDF75E
:403780005DFC01210198FEF743FC0300FF20002B03D1601E84416042C0B216BD2D740000AB6D000010B5FEF723FC431E98414042C0B210BD10B5FEF7E3FB431E9841404295
:4037C000C0B210BD10B5FEF765FB431E98414042C0B210BD10B5FEF72BFD431E98414042C0B210BD07B5012101AAFFF7E1FE0198FEF7F0FB102300280AD001990548FDF7B1
:403800001DFC0548FDF71AFC0122044B1A70002318000EBD36740000AB6D00004803002007B5012101AAFFF7C3FE0198FEF7C4FB102300280AD001990548FDF7FFFB054805
:40384000FDF7FCFB0122044B1A70002318000EBD40740000AB6D00004803002007B5012101AAFFF7A5FE019B002B02D0FEF72EFB01E0FEF75FFB431E98414042C0B20EBD22
:40388000004870474471000000207047F7B5070016000024019100F03DFB002813D0019B9C4210D200F002FC084BC5B21B78002B03D0FF23184000F03BFB0A2DEBD03D5502
:4038C0000134E4B2E7E734600020FEBDDA00002010B5002001F07EF9014B188010BDC0467A03002010B501F0A7F9044801F092F901F058F901F064F910BDC046D13800009B
:4039000073B50600012400F0CFF9164D002802D02B682342F7D1022000F01EFA0323002001AC2370330A6370E070A67001F054FD0421200000F0ACF901232C681C40FCD13C
:40394000012001F049FD00F057F900F055F900F053F900F051F90500200000F0FDF9E8B276BDC04624000740F0B50700002085B001910092824238D0012400F095F91C4DB5
:40398000002802D02B682342F7D10326022000F0E3F903AC3B0A002063702670A77001F01BFD3100200000F073F901232A681A42FCD1012700F026F9019C009BE618B442AA
:4039C0000AD0002000F02EF92B683B42FCD100F013F920700134F2E7012001F0FDFC00F011F9002000F0B8F9012005B0F0BDC04624000740F7B506000F00012400F054F962
:403A0000184D002802D02B682342F7D1022000F0A3F9022301AC23700020330A6370A670E77001F0D9FC062000F0FCF801232E681E40FCD1012001F0CFFC300001F0CCFC3C
:403A40000421200000F024F901232C681C40FCD1012001F0C1FC00F0D5F8200000F07CF90120FEBD24000740F0B50600002085B00C00019282423BD0012500F015F91D4FBD
:403A8000002802D03B682B42F7D1022000F064F9022303AD2B700020330A6B70AE7001F09BFC062000F0BEF801233E681E40FCD1012001F091FC300001F08EFC2800032120
:403AC00000F0E6F8019BE518AC4204D0207800F0A9F80134F8E701233C681C40FCD1012001F07AFC00F08EF8200000F035F9012005B0F0BD2400074010B501F0CDFF036858
:403B00000C2B00D1FEE7FEE7F8B500250F49104B01394A1C14D000221F685C689E68A018B24203D0B858A0500432F8E70200DE68141AA64201D020C2FAE710330139E8E765
:403B400001F0B0FFFCF722FCFEE7C04601000000D8780000002370B50A480B4C0B4D9A002100032B00D8A95801338150302BF6D1FCF752FA80220121D20513680B43136010
:403B800070BDC04600000020F93A0000000000008021064A10B5136809060B4313600B2000F0ECFA00F08EF810BDC0460000074010B5054C2378002B03D100F0DDF8012354
:403BC0002370FFF7E5FF10BD3402002010B50B2000F0DEFA00F092F8054A0B2013685B005B0813600022034B1A6000F0E5FA10BD00000740880F0740014B18687047C046A9
:403C0000400307408021054B49021A680A431A601968034A0A401A607047C04604030740FFFFFEFF134B144A30B515681C681900A54208D1114B1C680F232340082B02D0E8
:403C40000F4B186015E013680133402B00D100230C68A342FCD002210A4CC0B221600A4CE0541360094B1A680A4202D11A680A431A6030BDC00300207C03002008020740E3
:403C800040020740800F074080030020880F074070B504004518AC4204D02078FFF7C2FF0134F8E770BD0000044A054B1B68116810688B4200D94030C01A70477C030020F4
:403CC000C0030020F021F020084B09051A6800060A431A601A6802431A60054A13680B431360044B1A88044B1A607047000001400C0001403C020020880F074070B50126BD
:403D00000F4B104D1868104CC008304000F0EEFD2B68300023402B6000F000FE2B6830001B011B092B6000F005FE084B1A6814401C60074B1A6820231340064A138070BD9E
:403D40002000074000000140FFFFFFF00C000140880F07403C0200200549064B0A6880061340C02212051040184308607047C04620000740FFFFFFF3072110B50024184AA8
:403D8000184B0B201A60184A184B1A60184B194A1360194A1160194A1360194B1C6000F0F7F903210B2000F0CFF916490B2000F0C3F9154B20001C60144B1C60144B1C602A
:403DC000144B1C60144B1C60144B1C601A68144B1A80FFF7C1FF134B1C60134B1C6010BD0500000100000740010000802000074007010080000307400403074000020740E2
:403E0000040207402D3E0000880E0740C80E0740480F0740080F0740C80F0740880F07403C0200207C030020C0030020154B70B51B68002B00D09847134B1B689B071FD59F
:403E40000F20124C124A21681368994210D013680133402B00D100230E490F4DC95CC9B2296013600D4B1B680340082BEBD104E002210B4A13688B4313600222094B1A6026
:403E800070BDC046380200208C0F07407C030020C0030020800300204002074008020740880F0740800F07408021064A10B5136809060B4313600A2000F060F900F0ECF898
:403EC00010BDC0460000064010B5054C2378002B03D100F06FF801232370FFF7E5FF10BD40020020084B094A196813680020994208D013680133212B00D103000449C85C2D
:403F00001360C0B27047C04614040020CC030020F0030020044B1868044B1A681B68904200D22130C01A704714040020CC030020134B144A30B515681C681900A54208D15A
:403F4000114B1C680F232340082B02D00F4B186015E013680133202B00D100230C68A342FCD002210A4CC0B221600A4CE0541360094B1A680A4202D11A680A431A6030BD59
:403F8000C4030020C80300200802064040020640800F0640D0030020880F064070B504004518AC4204D02078FFF7C2FF0134F8E770BD000010B5002407211E4A1E4B0A20CE
:403FC0001A601E4B1E4A1C601E4B1A601E4B1F4A13601F4A11601F4A063914601E4A11601E4A13601E4B1C6000F0D2F803210A2000F0AAF81B490A2000F09EF804221A4B0A
:404000001C601A4B1C601A4B1C601A4B1C601A4B1A601A4B1C601A68194B1A80194B1C60194B1C60194B1C70194B1C60194B1C6010BDC0460B000002000006404000064005
:4040400001000A0048000640070000800003064004030640100306404400064000020640040206403D540000880E0640C80E0640480F0640080F0640C80F0640880F064096
:404080004802002014040020CC03002011040020C8030020C4030020024B1A88024B1A607047C04648020020880F064010B5FFF731FF03000020834201D0FFF713FFD82208
:4040C000034B92001968114201D000201A6010BDC00F064010B5040001F0A8F9044A054B1168A4050B401C43146001F0A3F910BD04E400E0FFFF3FFF10B54024044B1C6034
:40410000044B98650320FFF7E5FF034B1C6010BD80E100E00000002000E100E04022014B1A60704780E200E0802380009B05C3181868196070470000024B8000C3181868E6
:404140001960704740000020F8B5032605003540B5400F0004000635AE40AF4001F066F9A408054BA400E4182368B3431F43276001F060F9F8BDC04600E400E01F23184086
:404180001E3B8340014A13607047C04600E100E01F2318401E3B8340014A13607047C04680E100E01F2318401E3B8340014A13607047C04600E200E01F2318401E3B83408C
:4041C000014A13607047C04680E200E070B5802504002D02064BAC4205D9586801F01CF9044BE418F6E79868604301F015F970BD400100200080FFFF10B5034B1B7B584308
:4042000001F00AF910BDC04640010020F0B5050087B001F00BF9EB1E049003932D2B5BD8304B1B789D4204D82F4B1C782F4BE4B21EE02F4B1B789D4204D82E4B1C782E4B8F
:40424000E4B215E02D4B1B789D4204D82C4B1C782C4BE4B20CE02C4B1B789D4204D82B4B1C782B4BE4B203E02A4B1C782A4BE4B21B78EA1EDBB20193284B294F9A5C0593E2
:4042800002922F2A04D92A2D02D919263E6008E03F233E681E40029BB34205D2204B029A1A60052001F0B8F81B4B1E4AED182B780520DBB213601C4B019A1C601B4B1A602E
:4042C000FFF79AFF029BB34206D9059B039A05209B5C3B6001F0A0F8049801F0ABF807B0F0BDC046C0F1FF0FC1F1FF0FC2F1FF0FC3F1FF0FC4F1FF0FC5F1FF0FC6F1FF0F59
:40430000C7F1FF0FC8F1FF0FC9F1FF0FCAF1FF0FCBF1FF0FCCF1FF0FCDF1FF0F807700002CFF0B4028FF0B401CFF0B4020FF0B408021034A090613680B4313607047C04659
:4043400004010B4010B501F071F8C021034A090213680B43136001F06DF810BD00010B4010B5802401F062F80749084B0A68E4011A4022430A600A68134080221202134342
:404380000B6001F057F810BD00010B40FF3FFFFF0300044ADB0010680133D840012318407047C04610020B4070B505000C00FFF7EFFF00280AD103210800ED00A8402140F8
:4043C000A940034A136883431943116070BDC0460C020B4070B504000D00FFF7D9FF00280BD10123E4000234A340044A116899430B002900A1401943116070BD0C020B40B9
:4044000010B50400FFF794FF0C4B1A6822431A60E20703D5022219681142FCD0E20504D58022920019681142FCD0E20304D58022920219681142FCD010BDC04610020B4095
:4044400070B505000C00C920FFF7D6FE064A280182408440054943200B6893431C430C60FFF7CAFE70BDC046FFFF000008020B4070B5050000F0DAFF0E4B04001A68C02396
:404480001B02134011D10C480C49054028000E680B4A3240104308600A68012B01D1FFF751FF200000F0C6FF70BDFFF759FF0123E9E7C04600010B400404040010020B40E7
:4044C000FBFBFBFF044B054A196810400843186019681142FCD1704710020B4008080800042270B5224C2368134213D021490B6813420CD0204BDD6908681540A84308607A
:40450000D9699143D9611B69002B00D098470420FFF7AEFF80232268DB001A4215D015490A681A420DD0144AD56908682B4098430860D169114B0B40D3615369002B00D02E
:4045400098478020C000FFF793FF80232268DB021A420CD0074A12681A4204D0064B9B69002B00D098478020C002FFF781FF70BD10020B40540100204C020020FFFBFFFFCB
:4045800008230449C0000A689A43D2B2034013430B607047000004400423044980000A689A43D2B2034013430B60704700000440054A090413685B0D5B051843F8235B03B8
:4045C00019400843106070478001024010B509490220FFF7B1FD03210220FFF7B5FD0622054B1A70054B41321A70054B453A1A7010BDC046E546000022000F4032000F40CA
:4046000083000F4010B500F011FF10210400074A022013780B431370FFF7CEFD0220FFF7ADFD200000F006FF10BDC04693000F4010B5054C2378002B03D1FFF7C7FF012302
:404640002370FFF7DFFF10BD6C02002070B5134CA2786178C9B28A4202D24B1E9B1A01E0531A073B5D426B41DBB2002BF1D10C4B8A4205D11978490702D40A4B18700CE0FA
:40468000072A00D900220849885402200132A2701B78034201D0FFF785FD70BD6C02002063000F4040000F401804002010B500F0BDFE0121094B1A780A431A701A788A4333
:4046C0001A7000F0B7FE0220FFF762FD0022044B02205A709A70FFF751FD10BD90000F406C020020042130B50D4B0E4C0E481A782578954212D002780A400FD11D78072DC8
:4047000000D91A701A78094DD2B2AA5C084DD2B22A701A780132D2B21A70E8E730BDC0466D0200206E02002063000F401804002040000F40012304490A689A43D2B2034079
:4047400013430B607047C04600000440144A70B513688026013313600022130011481249124C02607605042A15D093005D58002D0EDA1D59013D1D511D59002D08D15D5845
:4047800035435D505D5801355D50094D5D591D5101320123E7E7002B00D0026070BDC0463004002070020020340400204404002020040020002310B509499A00545801336F
:4047C000002C08DB074C1051074C1051802000065050180002E0042BEFD1002010BDC046340400204404002020040020002110B588420FD00322431E1340074C9B001A5953
:404800008A4207DA195989B2002903D01A59D20FD2071A51080010BD34040020014B18687047C046300400200323013818408000064B002900D019501A58054B1A50054A1B
:404840001358DB0FDB0713507047C0462004002044040020340400200022054B01388000C250044B044A8350044A83507047C046340400200000F0FF44040020200400205F
:4048800010B50120FFF7E8FF0220FFF7E5FF0320FFF7E2FF0420FFF7DFFF10BD10B50E4B1A79002A07D101321A71FFF7E9FF0B490F20FFF739FCC020094A0A4B0A495360EF
:4048C0000B6A00061B021B0A03430B62002393600733136010BDC046700200204D47000010E000E0DFAB000000ED00E04023044980010A689A43D2B2034013430B607047A6
:40490000000004401023044900010A689A43D2B2034013430B607047000004407F23044AC00111680B401843C0B210607047C046000004404023044980010A689A43D2B229
:40494000034013430B6070470003044010B5040000F06CFDC021044AA40113688B431C43146000F067FD10BD04E400E010B51024044B1C60044B18650320FFF7E7FF034B5D
:404980001C6010BD80E100E00000002000E100E01022014B1A60704780E200E08022094BD2021A603C22084B1A60084B3A3A1A60074A084B1A603222074B1A600022074B39
:4049C0001A607047000105402401054038010540FFFF0000140105400C0105400801054070B50D000400AC4000F020FD024B1C6000F020FD70BDC0460800054010B50124F1
:404A000000F014FD054A13682343136000F012FD18212000FFF7E4FF10BDC0460000054010B5054C2378002B03D1FFF7B7FF01232370FFF7E3FF10BD7502002010B5040071
:404A400000F0F4FC044A054B1168A4030B401C43146000F0EFFC10BD04E400E0FF3FFFFF10B52024044B1C60044B58650320FFF7E5FF034B1C6010BD80E100E000000020F9
:404A800000E100E02022014B1A60704780E200E010B503210E20FFF757FB21490E20FFF74BFB01221F4B1A601F4B1B68002B01DB1E4900E01E491F4A8020136801240B4361
:404AC000002113601C4A1D4B40021A601C4A1D4B1A601D4B1D4A19601D4B1A601D4A1E4B1A601E4A13680343136002221C4B1D4819601D4B19601D4B1C601D4B1A600368C5
:404B00001C4A13408022234303601B4BD2001A6080221A4B52011980194B1A6010BDC046E94B000020001A4080031A40700200507002105000001A40DC00008004001A40C8
:404B40000000FF0718001A401C001A400800040010001A400400040014001A4000031A4028021A4030001A4038021A4018021A40000F1A40FFFFFFDF80001A40580400204D
:404B800054040020064B10B51A68002A07DB80211A6809060A431A600A20FFF72DFB10BD00001A4010B5054C2378002B03D1FFF76FFF01232370FFF7E5FF10BD7602002067
:404BC0008021034A490213680B4313607047C04604001A400023984202D1024B1B689BB218B2704780011A40014B1A681A60704710021A4010B5040000F018FC044AA407AB
:404C000013689B009B081C43146000F013FC10BD00E400E010B50824044B1C60044BD8640320FFF7E7FF034B1C6010BD80E100E00000002000E100E00822014B1A607047B2
:404C400080E200E010B5040000F0F0FB044AA40713689B009B081C43146000F0EBFB10BD04E400E010B58024044B1C60044BD8650320FFF7E7FF034B1C6010BD80E100E0C7
:404C80000000002000E100E08022014B1A60704780E200E010B500F0C9FB1021034A13780B43137000F0C6FB10BDC04691000F40012110B5034A13780B431370FFF7EAFF8C
:404CC00010BDC04671000F400723044A117899431170117803400B431370704781000F4010B50020FFF7F0FF10BD000010B5054C2378002B03D1FFF7F3FF01232370FFF7C3
:404D0000D7FF10BD77020020014B18707047C04601000F4010B5040000F088FB044A054B1168A4030B401C43146000F083FB10BD08E400E0FF3FFFFF10B58024054BA4009E
:404D40001C60054B58660320FFF7E4FF034B1C6010BDC04680E100E00000002000E100E08022024B92001A607047C04680E200E080220C4BD2041A601A680B491A60002239
:404D80000A60196819600C21084B1960084B1A60084B31321A60084A084B1A60084A094B1A607047C0010540C8010540E4010540F8010540E8010540FFFF0000D4010540E1
:404DC00030110000CC010540014B80B218607047CC01054070B50D000400AC4000F026FB024B1C6000F026FB70BDC0460800054010B5082400F01AFB054A1368234313607B
:404E000000F018FB18212000FFF7E4FF10BDC0460000054010B5054C2378002B03D1FFF7A7FF01232370FFF7E3FF10BD7802002080220C4BD2041A601A680B491A60002228
:404E40000A60196819600C21084B1960084B1A60084B31321A60084B113A1A60074B103A1A6070478001054088010540A4010540B8010540A8010540940105408C010540DD
:404E8000014B80B2186070478C01054070B50D000400AC4000F0CAFA024B1C6000F0CAFA70BDC0460800054010B5042400F0BEFA054A13682343136000F0BCFA1821200069
:404EC000FFF7E4FF10BDC0460000054010B5054C2378002B03D1FFF7ABFF01232370FFF7E3FF10BD790200208022094BD2021A603C22084B08491A600023084A1360084A80
:404F00001160C821074A1160074A13607047C0464001054064010540FFFF000078010540540105404C01054048010540014B80B21860704748010540014B186880B270473E
:404F40004801054070B50D000400AC4000F06EFA024B1C6000F06EFA70BDC0460800054010B5022400F062FA054A13682343136000F060FA18212000FFF7E4FF10BDC0465F
:404F80000000054010B5054C2378002B03D1FFF7ABFF01232370FFF7E3FF10BD7A02002010B5040000F042FAC021044AA40113688B431C43146000F03DFA10BD0CE400E0BB
:404FC00010B58024054B64011C60054B18670320FFF7E6FF034B1C6010BDC04680E100E00000002000E100E08022024B52011A607047C04680E200E02023044940010A688D
:405000009A43D2B2034013430B607047000004408021034A090613680B4313607047C04600000240024A13685B005B081360704700000240034A13681B0C1B040343136020
:405040007047C04600000240014B186880B270470000024010B50400044800F057F9072000F044F9024B1C6010BDC0460D5200007C020020034A1268002A02D01318013BCE
:40508000187870477C02002010B5FFF7F3FFFF2810D0094A094C11794B1CDBB213716054032B01D900231371022000F041F9002000F03EF910BDC0467C0200205A040020C8
:4050C00010B5FFF7D7FFFF2810D0094A094C51794B1CDBB253716054032B01D900235371012000F025F9002000F022F910BDC0467C0200205E040020034A53799079181AAA
:40510000431E9841C0B270477C0200200022024B9A715A717047C0467C020020034A1379D079181A431E9841C0B270477C0200200022024BDA711A717047C0467C020020D9
:4051400010B5FFF7D9FF002800D1FEE7054A064891794B1CDBB29371405C032B01D90023937110BD7C0200205E04002010B5FFF7D5FF002800D1FEE7054A0648D1794B1CAC
:40518000DBB2D371405C032B01D90023D37110BD7C0200205A04002000230122104206D10133DBB24008082BF8D1FF2000E01800704737B50F2000F071F8F02000F082F8FA
:4051C00000F078F86B469C1D20700F2801D100201BE00F2000F076F8F02000F05FF800F07DF86B46DD1DD8710F28F0D02078C043C0B2FFF7D1FF04002878C043C0B2FFF71B
:40520000CBFF800004430134E0B23EBD70B5FFF7D0FF2049204C087008782100227A0931531CDBB223728854042B01D90023237221000023FF2509315A5C01331540052B2E
:40524000FAD16BB21800A17B4AB2104301D1A0731EE016009E4303D00023A573238217E0934305D02800FFF72BFF2682A5730FE029420DD0228A182A02D80132228206E0D0
:40528000A37C002B02D12800FFF7FEFE0123A37470BDC046620400207C0200200F23044A000111680B401843C0B210607047C04600020440024B18680006000F7047C04601
:4052C000040204400F2304490A689A43D2B2034013430B607047C04600020440024B18680F2318407047C0460402044010B5040000F09CF8C021044AA40113688B431C43E4
:40530000146000F097F810BD00E400E010B50124044B1C60044B18640320FFF7E7FF034B1C6010BD80E100E00000002000E100E0014B18707047C04672000F4010B5040096
:4053400000F074F8044A054B1168A4030B401C43146000F06FF810BD00E400E0FF3FFFFF10B50224044B1C60044B58640320FFF7E5FF034B1C6010BD80E100E0000000201B
:4053800000E100E00222014B1A60704780E200E0024B18688006800F7047C046040104403023034A10681840106000097047C04610010440014B1878C0B2704760000F40B2
:4053C0000423044980000A689A43D2B2034013430B6070470004044008230449C0000A689A43D2B2034013430B607047000404408022024B52001A607047C04680E200E01B
:4054000008230449C0000A689A43D2B2034013430B607047000104400230800804D0C0460138FDD1C046C046C0467047EFF3108072B6704780F310887047C046254B70B54F
:405440001B68002B00D09847234B1B685B071CD520240F2021490B680133212B00D100231F4A15681F4AAB4203D113681E4B1C7004E012681D4DD2B2EA540B601C4B1B6868
:405480000342E8D104221B4B1A601B4B1B689B071FD50F20194C1A4A21681368994210D013680133202B00D100231649164DC95CC9B229601360154B1B680340082BEBD151
:4054C00004E00221124A13688B4313600222114B1A6070BD44020020CC0F064014040020CC0300204003064011040020F003002008030640C00F06408C0F0640C8030020B5
:40550000C4030020D00300204002064008020640880F0640800F064002B4714649084900095C49008E4402BC7047C04603B47146490840004900095A49008E4403BC7047C9
:40554000002243088B4274D303098B425FD3030A8B4244D3030B8B4228D3030C8B420DD3FF22090212BA030C8B4202D31212090265D0030B8B4219D300E0090AC30B8B42BA
:4055800001D3CB03C01A5241830B8B4201D38B03C01A5241430B8B4201D34B03C01A5241030B8B4201D30B03C01A5241C30A8B4201D3CB02C01A5241830A8B4201D38B027B
:4055C000C01A5241430A8B4201D34B02C01A5241030A8B4201D30B02C01A5241CDD2C3098B4201D3CB01C01A524183098B4201D38B01C01A524143098B4201D34B01C01AF0
:40560000524103098B4201D30B01C01A5241C3088B4201D3CB00C01A524183088B4201D38B00C01A524143088B4201D34B00C01A5241411A00D20146524110467047FFE74B
:4056400001B5002000F0F0F802BDC0460029F7D076E7704703460B437FD4002243088B4274D303098B425FD3030A8B4244D3030B8B4228D3030C8B420DD3FF22090212BAC2
:40568000030C8B4202D31212090265D0030B8B4219D300E0090AC30B8B4201D3CB03C01A5241830B8B4201D38B03C01A5241430B8B4201D34B03C01A5241030B8B4201D3EE
:4056C0000B03C01A5241C30A8B4201D3CB02C01A5241830A8B4201D38B02C01A5241430A8B4201D34B02C01A5241030A8B4201D30B02C01A5241CDD2C3098B4201D3CB01B7
:40570000C01A524183098B4201D38B01C01A524143098B4201D34B01C01A524103098B4201D30B01C01A5241C3088B4201D3CB00C01A524183088B4201D38B00C01A524142
:4057400043088B4201D34B00C01A5241411A00D201465241104670475DE0CA0F00D04942031000D34042534000229C4603098B422DD3030A8B4212D3FC22890112BA030AE8
:405780008B420CD3890192118B4208D3890192118B4204D389013AD0921100E08909C3098B4201D3CB01C01A524183098B4201D38B01C01A524143098B4201D34B01C01A0F
:4057C000524103098B4201D30B01C01A5241C3088B4201D3CB00C01A524183088B4201D38B00C01A5241D9D243088B4201D34B00C01A5241411A00D20146634652415B10BE
:40580000104601D34042002B00D54942704763465B1000D3404201B5002000F005F802BD0029F8D016E770477047C046002B11D1002A0FD1002900D1002802D00021C943F5
:40584000081C07B4024802A14018029003BDC046D9FFFFFF03B4684601B5029800F032F8019B9E4602B00CBC7047C046F0B54F464646C0B41604360C9946330005042C0C67
:40588000070C150C63437E436F4365431C0CAD1964199C46A64203D980235B02984647446346250CEF191D044B464A4343432D0C240464199918C91920000CBC90469946C4
:4058C000F0BDC046F0B54D46564644465F46F0B4924683B004000D0099468B422FD82CD04946504600F0CCF829000600200000F0C7F8331A9846203B9B4600D574E0534683
:405900005A4693401F005346424693401E00AF4229D826D05B46A41BBD41002B00DA79E0002200230092019301235A4693400193012342469340009319E08242D0D90022EF
:405940000023009201930C9B002B01D01C605D600098019903B03CBC90469946A246AB46F0BDA342D6D900220023009201934346002BE8D0FB0772081A4346467B080EE0A9
:40598000AB4201D1A2420CD8A41A9D41012024196D410021013E24184D41002E06D0AB42EED9013E24196D41002EF8D15B460098019900196941002B22DB2B005A46D34019
:4059C0002A004446E2401C005B461500002B2CDB26009E40330026004746BE403200801A994100900191AEE7424620239B1A5246DA40414613004A468A4017001F4382E780
:405A0000424620239B1A2A0046469A402300F3401343D5E74246202300219B1A0022009101920122DA40019282E74246202326009B1ADE402F00B446974066463B003343AD
:405A4000C9E7C0461C2101231B04984201D3000C10391B0A984201D3000A08391B09984201D30009043902A2105C40187047C0460403020201010101000000000000000083
:405A800010B5002903D1FFF7DDFF203002E0081CFFF7D8FF10BDC046014B18687047C046B80100200E4B70B500251E000D4CE41AA410A54204D0AB00F35898470135F8E789
:405AC00001F0F8FE084B00251E00084CE41AA410A54204D0AB00F35898470135F8E770BDC0780000C0780000C0780000C8780000002310B59A4203D0CC5CC4540133F9E77E
:405B000010BD03008218934202D019700133FAE770470000F0B51E00454B87B01B680192029308220B00059003911C7802995D1C09194878104001D02B00F6E72D2C04D18B
:405B40009D1C5C780123009304E000902B2C01D15C789D1C002E02D0102E0AD162E0302C5ED120222B789343582B54D110266C780235009F31007B1E9F412E4BFF1838000C
:405B8000FFF764FD380004913100FFF7D9FC00230322070094461800029A121951780422114201D0303C07E06246114017D03722012900D02032A41AA64210DD5A1C0BD0EE
:405BC000B84207D802D1049B9C4203DC70430123201801E001235B422C780135DCE75A1C0BD10098059A431E9841124BC01822231360019B002B0AD117E0009A002A00D072
:405C00004042019A002A10D0039A002B00D06A1E019B1A6009E03024002EAAD10826A8E70A26A6E7302C9CD0A3E707B0F0BDC046BC010020FFFFFF7F10B513000A000100AF
:405C400002480068FFF766FF10BDC046B80100200000000070FCFF7F01000000150180961180FFB103012C2DB203012C2DB306012C2D012C2DB40107C003A20284C101C50C
:405C8000C2020A00C3028A2AC4028AEEC5010E20003601A83A01052A040000007F2B040000007FE010021C07123732292D29252B3900010310E110031D07062E2C292D2E49
:405CC0002E373F0000021013800A2980640000002C632C632C632C63139D139D139D139D7DEF7DEF7DEF7DEF2C632C632C632C63FFFFFFFF4D6B4D6B1CE71CE7139D139D8A
:405D00002C632C632C632C63139D139D139D139D7DEF7DEF7DEF7DEF2C632C632C632C63FFFFFFFF4D6B4D6B1CE71CE7139D139D2C632C632C632C63FFFFFFFF4D6B4D6B01
:405D40001CE71CE7139D139D845D00000000170028002C003F00000000000000646B0000000007000C0030003600000000000000E4660000000005000C0020007F000000F0
:405D800000000000000000000000000000000000000000000000000000000000000000000000000000000000000000000000000000000000000000000000000000000000E3
:405DC00000000000000000000000000000000000000000000000000000000000000000000000000000000000000000000000000000000000000000000000000000000000A3
:405E00000000000000000000000000000000000000000000000000000000000000000000000000000000000000000000000000000000F0FF0FF0FF0FF0FF0F000000000068
:405E40000000000000000000000000000000000000000000000000000000000000000000000000000000000000000000000000000000000000000000000000000000000022
:405E800000000000000000000000000000000000000000000000000000000000000000000000000000000000000000000000000000000000000000000000000000000000E2
:405EC0000000007E00007E00007E00007E00007E00007E0000000000000000000000000000000000000000000000000000000000007000003800003800001C00001C000096
:405F00000E00000E00000700000700800300800300C00100C00100E00000E000007000007000003800003C00001C00000E00000E00000700000700800300800300C001008E
:405F4000C00100E00000E000007000007000003800003800001C00001C00000E0000000000000000000000000000000000007E0080FF01C0FF03E0C307F0810FF0000F78A9
:405F8000001E78001E78001E38001C3C003C3C003C3C003C3C003C3C003C3C003C3C003C3C003C3C003C3C003C38001C78001E78001E78001EF0000FF0810FE0C307C0FF95
:405FC0000380FF01007E00000000000000000000000000000000000000000000000000000000000000006000007C00807F00F87F00F87B00187800007800007800007800E3
:40600000007800007800007800007800007800007800007800007800007800007800007800007800007800007800007800007800007800F8FF7FF8FF7FF8FF7F0000000006
:406040000000000000000000000000000000000000000000000000000000000000803F00F0FF00F0FF0170E00310C00300800700800700800700800700800700800700C072
:406080000300C00300E00100F000007800003C00001E00000F00800700800300C00300E00100F00000F00000F80000F8FF07F8FF07F8FF07000000000000000000000000E8
:4060C000000000000000000000000000000000000000000000807F00E0FF03E0FF07E0C00700800F00000F00000F00000F00000F00800700800700E00300FF0000FF000078
:40610000FF0300E00700800F00000F00001E00001E00001E00001E00001E00001E00000F00800FE0C007E0FF03E0FF01807F0000000000000000000000000000000000001E
:406140000000000000000000000000000000C00300E00300F00300F00300F80300FC0300DC0300CE0300CF0300C70380C303C0C303C0C103E0C003F0C00370C00338C00379
:406180003CC003FCFF3FFCFF3FFCFF3F00C00300C00300C00300C00300C00300C00300C00300C003000000000000000000000000000000000000000000000000000000001A
:4061C0000000000000C0FF07C0FF07C0FF07C00100C00100C00100C00100C00100C00100C00100C01F00C07F00C0FF0100F00300C00700800700800700000F00000F000042
:406200000F00000F00000F00000F00800F00800700C00760E003E0FF01E0FF00803F0000000000000000000000000000000000000000000000000000000000000000F80389
:4062400000FE0F00FF0F800F0EC00300E00100E00100F00000F00000F0000078000078F80178FE0378FF0FF8830FF8011FF8001EF8003EF8003C78003C78003CF0003CF083
:40628000003CF0001CE0011EE0011FC0870F80FF0700FF0300FC00000000000000000000000000000000000000000000000000000000000000F0FF1FF0FF1FF0FF1FF0FFA4
:4062C0001F00000E00000E00000700800700800300C00300C00100E00100E00000F000007000007800003800003C00001C00001E00000E00000F00000F008007008007004D
:40630000800700C00300C00300C0030000000000000000000000000000000000000000000000000000000000000000000000FE0180FF07C0FF0FE0830FF0011FF0001EF0BA
:40634000001EF0001EF0011EF0010FE08307C0CF0380FF0100FF0080FF01C0FB07E0E10FF0C01FF0001F78003E78003E78003C78003C78003CF8003CF0011EF0830FE0FF4B
:406380000780FF0300FE00000000000000000000000000000000000000000000000000000000000000007E0080FF01C0FF07E0C307F0010FF0000F70001E78001E78001E2F
:4063C00078003C78003C78003EF8003EF0003EF0013FE0833FC0FF3D80FF3C003F3C00003C00001E00001E00001E00000F00000F008007E0E003E0FF01E0FF00803F00009B
:406400000000000000000000000000000000000000000000000000000000000000000000000000000000000000000000000000000000000000007E00007E00007E00007E64
:4064400000007E00007E00000000000000000000000000000000000000000000000000000000007E00007E00007E00007E00007E00007E000000000000000000000000002C
:40648000000000000000000000000000000000000000000000000000000000000000000000000000000000000000000000007E00007E00007E00007E00007E00007E0000E8
:4064C0000000000000000000000000000000000000000000000000000000007E00007E00007E00007E00007E00007E00007800007800003800003C00001E00000600000020
:406500000000000000000000000000000000000000000000000000000000000000000000000000000000002000003800003E00801F00E00700F00100FC00003F00C00F0044
:40654000F00300FC0000F00300C00F00003F0000FC0000F00100E00700801F00003E0000380000200000000000000000000000000000000000000000000000000000000022
:406580000000000000000000000000000000000000000000000000000000000000000000000000000000000000000000FCFF3FFCFF3FFCFF3F00000000000000000000002D
:4065C00000FCFF3FFCFF3FFCFF3F000000000000000000000000000000000000000000000000000000000000000000000000000000000000000000000000000000000000ED
:406600000000000000000000000000000000000000000000000400001C00007C0000F80100E00700800F00003F0000FC0000F00300C00F00003F00C00F00F00300FC000055
:406640003F00800F00E00700F801007C00001C0000040000000000000000000000000000000000000000000000000000000000000000000000C0FF00F8FF03F8FF0F38C019
:406680000F38001F38001E38001E00001E00001E00000F00800700C00300F00100F800003C00001E00001E00000F00000F00000F00000F0000000000000000000000000096
:4066C000000F00000F00000F00000F000000000000000000000000000000000000000000000000000000000000000000000000000004040404040400040400000A0A0A0A16
:406700000000000000000000000A0A1F0A0A1F0A0A000000000206090102040809060400000B0B04040202020D0D00000002050505021509091600000C0C080400000000FA
:4067400000000000000402020202020202040000000204040404040404020000000004150E0E15040000000000000004041F04040000000000000000000000000606040254
:4067800000000000000F000000000000000000000000000006060000000808040402020201010000000E090909090909090700000004060504040404040F00000006090900
:4067C00008040201010F000000060908080608080906000000080C0A0A090F0808080000000F01010107080809060000000C02010709090909060000000F08080804040235
:40680000020200000006090909060909090600000006090909090E080403000000000000060600000606000000000000060600000606040200000804020101020408000071
:4068400000000000000F000F0000000000000102040808040201000000060909080404000404000000060909090D0D01010E000000060909090F09090909000000070909F4
:406880000907090909070000000609090101010109060000000709090909090909070000000F0101010F0101010F0000000F0101010F0101010100000006090901010D09A6
:4068C0000906000000090909090F090909090000000E040404040404040E0000000E040404040405050200000009090505030505090900000001010101010101010F00007A
:406900000009090F0F090909090900000009090B0B0D0D090909000000060909090909090906000000070909090701010101000000060909090909090906040800070909B5
:406940000907030509090000000609090106080909060000001F040404040404040400000009090909090909090600000009090909090A0A04040000000909090909090F93
:4069800009090000000909090606060909090000001111110A0A040404040000000F080404020201010F0000000602020202020202060000000101020204040408080000B6
:4069C00000060404040404040406000000040A00000000000000000000000000000000000000001F0606020400000000000000000000000006080E09090E000000010101F1
:406A00000709090909070000000000000E010101010E0000000808080E090909090E0000000000000609090F010E0000000402020702020202020000000000000E09090934
:406A4000090E08060001010107090909090900000000040004040404040E00000000040004040404040405020001010109050303050900000006040404040404040E00001C
:406A800000000000090F09090909000000000000050B090909090000000000000609090909060000000000000709090909070101000000000E090909090E080800000000B2
:406AC0000D0A0202020200000000000006090204090600000000020207020202020600000000000009090909090E00000000000009090A0A040400000000000009090909AD
:406B00000F0900000000000009090606090900000000000009090909090E0807000000000F080402010F00000004020202010202020400000404040400040404040400005D
:406B4000000204040408040404020000000A05000000000000000000000000000000000000000000000000000000000000000000080800080800082A1C49417F22223E22C7
:406B80002208082A1C49417F0000003636363636360000000000040C1C3C1C0C0400000000404020201010080804040038393530353731313931303138383734313132396D
:406BC00030353031303434383733363731303431303637353833363631303531303138333636383139373837353734383939313035363639373839383800000000000000D5
:406C0000636F70797269676874286329627950696F74725A617061727430312E323031380000000000010515550D0A737473743D25640D0A006F6C623D25640D0A006F6CEB
:406C4000613D25640D0A00733267623D25640D0A00733267613D25640D0A006F7470773D25640D0A006F743D25640D0A0053744772643D25640D0A0043533D25640D0A00A6
:406C800066736163743D25640D0A0053473D25640D0A00FF7F3F1F0F070301FF7F3F1F0F0703010301010103010F070301000301000F070301000301017F3F1F0F07030145
:406CC00000010F070301070301010101010101010103010101010F0703010F07030101010101001C00B2001300C80010000A0013000507D0000100000620050D0A5541524A
:406D000054206563686F20004F4E0D0A004F46460D0A004A6F622044657461696C733A0D0A004C656E6774683D25756D6D0D0A00436F756E743D2575207069656365730D78
:406D40000A00436F756E74456C61707365643D25750D0A0053746570732F6D6D3D25750D0A000D0A506965636520232564206F7574206F662025642070726F6475636564F9
:406D800020696E2025646D73000D0A4A6F6220636F6D706C657465210D0A003E20000D0A4A6F6220706175736564210D0A000D0A4A6F622061626F72746564210D0A004655
:406DC0006163746F72792052657365742E2E2E0D0A00646F6E65210D0A002046454544200021464545442100524F424F2D5343484E415050490020456E746572207063737C
:406E00003A200020456E746572206C656E67746820696E206D6D3A200050726F64756365643A2020202020202000205245414459202000253130730052554E4E494E47208E
:406E400000504155534544200020434F4D504C455445200041424F52544544004552524F5221200025356400436F756E743A20253564706373004C656E6774683A20253590
:406E8000646D6D002535730025730025642E25646B6D0025642E25646D00526571756972656400456C6170736564200054696D6520656C61707365643A0054696D65206C69
:406EC0006566743A202020002533646D696E20253264730042746E3A2000313000333534300032300041626F727400507265737320616E79206B65790023203D20456E74C1
:406F00006572202A203D2044656C2E0042746E3A204572726F72207265706F7274004552524F52205245504F525400445249564552204552524F522047535441545B315DA4
:406F4000004449414730204C4F57004449414731204C4F57004F56455254454D50204552524F52004D4F544F52205354414C4C00524F424F5F5343484E415050490D0A41D6
:406F800075746F6D617465642057697265204375747465720D0A56322E340D0A28632920323031382062792050696F7472205A61706172740D0A0048454C5020312F3200BC
:406FC00023203D20456E746572206C656E677468205B6D6D5D002A203D20456E74657220636F756E74205B7063735D005768696C6520656E746572696E6720612076616C3A
:4070000075650023203D20456E74657220202A203D2044656C6574650042746E2070726573733A2073746172742F70617573650042746E20686F6C643A2061626F727400FB
:40704000412D443A206C6F6164207072657365740042746E2B20412D443A2073617665207072657365740042746E2B2A3A2075617274206563686F0048454C5020322F32AA
:4070800000486F6C6420646F776E3A0023203D20506572666F726D20637574002A203D20526577696E640030203D2057697265206465746563746F7200202020206F7665B8
:4070C000727269646500312D39203D2073686F772048656C700028632920323031382050696F7472205A6170617274007777772E686578656775697461722E636F6D000A5D
:40710000524F424F5F5343484E4150504920436F6D6D616E6420436F6E736F6C65004572726F723A200048656C703A20006F6B00436F6D6D616E64206E6F7420666F756E6D
:40714000642E00004774000004000000193600004C697374732074686520636F6D6D616E647300000000000000000000000000004C740000030000005936000053686F779A
:40718000206861726477617265207265766973696F6E000000000000000000005074000006000000213800005365742077697265206C656E67746820696E206D6D00000019
:4071C00000000000000000005774000006000000E5370000536574207769726520636F756E7420696E2070637300000000000000000000005E74000005000000D537000016
:407200005374617274206E6577206A6F62000000000000000000000000000000000000003A70000005000000C537000041626F7274206A6F6200000000000000000000007D
