:400000000010002011000000013D0000013D000010B503F07DFE0000F7B572B60122724B00211A7080227148D20005F076FE80220021D2006E4805F070FE0022FF251100D6
:400040006C4E24366B4BD0584B000700284009184800013001333018AF43F31801900198834207D0581E0078C0190400187802332070F4E70432242AE4D15F4A5F4B6049CB
:400080001A60604A604B80241A60604A604B614D1A609922604BE4021A6099235F4A1B0413605F4A2C2013605E4A11605E4A3C2113605E4A13605E4A5E4B1A605E4A5F4BE8
:4000C0001A60F1225E4B12011A60C2225D4BD2001A605D4A5D4B1A605D4A5E4B1A605E4A13788B4328390B4313705C4A023113780B431370D2225A4B1A605A4A5A4B1A6094
:40010000D0225A4B1A605A4B893A1A60594A5A4B1A60A022594BD2001A60FF22584B1A60584A594B1A60F322584B1A60584A594B1A606022584B1A60584B553A1A60584A7B
:40014000584B1A602B6823432B6004F063F9564A564B57491A602322564B09201A60564B133A1A60554B10321A602223544A1360544A136013220A6053490A603321534AE9
:400180001160534A534913602122534B1A608222524B12061A608022514B12062C601A60504A514B1A60514A514B1A60514A524B1A60524A524B1A60524A534B1A60534A81
:4001C000534B1A60534A544B1A60544A544B1A6004F0B6F8092004F0D5F80022514B1A60514B1C60F7BDC0461C700F4000300F4000400F401C7700000000FFFF0000014029
:4002000000000445380800030400014003EE633F0C00014000010B401000014000500F4010500F4018500F4020500F4030500F400000016338500F404B44040458320F4032
:400240002001054060010540FD13000020000040E602000000800F4001700F4000700F400000044096EDD800080004401800044000010440B6BD1900080104400C01044016
:4002800000020440922449000802044000030440966DD800080304401803044000040440B20D0000080404400600008004010B4028020240080202400C0202401C02024046
:4002C00020020240240202402C0202403402024038020240E94600003C02024008010B40000002400500008040000240F301008004000240B70100C0440002402C0400801A
:4003000008000240560100C04800024004000C80000102401E001A8040010240AF000080800102400C020B4000031A4010B5064C2378002B07D1054B002B02D0044800E0EE
:4003400000BF0123237010BDC801002000000000685E0000084B10B5002B03D00749084800E000BF07480368002B00D110BD064B002BFBD09847F9E700000000CC010020C0
:40038000685E0000C00000200000000010B562B603F09EFE2149002000F048FE04F082FB012005F023F903F007FD002003F0D8FD02F0F4FB01F010FD01F040FD03F05CF895
:4003C00002F050F803F0BAF804F084FE03F074FB0221002004F0ECF81149002004F034F90020012104F0FAF8012004F00DF9082004F06CF904F016FB0A4B984202D903F0CA
:40040000B7F806E003F08AFE002802D003F052FFF8E703F035F802F0C1F8E8E77D110000FFFF00001027000010B5002004F0B8F9322003F0CFFF012004F0B2F9782003F04A
:40044000C9FF10BD10B50400002004F09DF9200003F0ECFC03F0DAFC10BD70B50D000400012004F091F92900200003F015FD03F0CDFC70BDF8B50578441C002D19D020789F
:40048000FFF7E0FFA71C66787F24344021003800FFF7E3FF7F233C199E4307D02078661CFF2800D1F53003F095FF3400013DEDB2E3E7F8BD10B50400012004F065F9200025
:4004C00003F0B4FC03F0A2FC10BD0000F0B5070000250E0085B02A2000920193FFF7B2FF114B009A1B7803ACDF1904219B182000E37025706770A570FFF7AFFF2B20FFF7EF
:40050000A1FF0A4B019A1B7804219E1920009B18E37025706670A570FFF79FFF2C20FFF791FF05B0F0BDC046C4000020E401002013B51400002817DB0C4B5A78904213DA81
:40054000002911DB9B7899420EDAC0B2C9B24B1C421CDBB2D2B2FFF7B9FF01A8230A022103704470FFF779FF13BDC046C4000020F0B587B01F000CAB1B88160002930028AF
:4005800031DB1C4B5A7890422DDA00292BDB9B78994228DA002E26DBB24224DD002F22DBBB4220DDCBB20193C4B2FBB2F2B201992000FFF78BFF029B1B0A0393A64215DB72
:4005C000019DAF420CDB6B461B7B05A803706B461B7A022101354370EDB2FFF73EFFF0E70134E4B2EAE70120404200E0002007B0F0BDC046C400002073B506AC26880028E6
:4006000019DB0E4C6578A84215DA002913DBA478A14210DA002A0EDB95420CDD002B0ADB9C4208DD904201D0994204D10096FFF79FFF002001E00120404276BDC4000020D8
:4006400070B504003620FFF7FDFE03201E4D204068701E4C022816D0032816D08026012808D0C820FFF726FF002366702370A670203312E0A820FFF71DFF202366702370A2
:40068000A670002309E0082000E06820FFF712FF80236370A370002323702B7080230C491A000C4800F034F80B49012000F02AFB0A49002000F026FB002000F031FB0120BA
:4006C00000F02EFB70BDC046E4010020C400002031050000F402002071050000F905000010B50400012004F05BF8012004F04CF8FFF79AFE0448FFF7BDFE044B20005C70B5
:40070000FFF79EFF10BDC046745E0000E401002010B5C380053B82801BB2053A0160C384C383042112B2030082848283012201844184403301001A705A7000230E4C083156
:40074000C36283864386C3860387C363CC870124011D6442CC87811DCB874A31036143618361C3640B7043650B72C3650B74034B1860100010BDC0465D5C0000E8010020CA
:4007800010B5044B1B682C3316C816C306C806C310BDC046E8010020F0B585B01F000AAB1B8802900C0016000393824201DA06000292A74202DA23003C001F00124B1B6822
:4007C0001A005832127892070CD5039A210000925D6D32003B000298A847002802D110E0013424B2A7420CDB029DAE42F8DB064B28001B68039A1B682100013598472DB2E8
:40080000F3E705B0F0BDC046E801002007B50021064B1A68D3889288013B013A00901BB212B20800FFF7B8FF07BDC046E8010020F0B58BB01E0010AB1B8803920593404B14
:4008400007001B680C001A005032127892072ED4039B361BDD1B2DB2EA17AB18534006936B4636B218229B5EF2170393B318534007936B461C229B5E012204936B1E1D437D
:40088000731E1E432E4BED171B68F6171543324309921B68059A2100380008959847039B049A93420DDA049B00255E1042E0059A0092DB6C039A1D003300A8470028C7D17A
:4008C0003BE00025039B5E10039B9D4235DA079B039AF618B3B21EB2B24205DC069A9E1A099B36B2E41824B2089B059AFB181FB2134B21001B6838001B68013598472DB23C
:40090000E2E7069B049AF618B3B21EB2B24205DC079A9E1A089B36B2FB181FB2099B059AE418074B24B21B6821001B683800984701352DB2049B9D42E3DB0BB0F0BDC0466B
:40094000E8010020024B1B680433D8877047C046E8010020024B1B680633D8877047C046E8010020024B1B680420185E7047C046E8010020024B1B68403318707047C0465C
:40098000E8010020F0B58BB0029310AB1B880591060011000393119CD62815D007D8B52818D0C42814D0B02817D1F82615E0E4280CD003D8DC2810D19A260EE0F6280BD0F2
:4009C000FC280AD1812608E0992606E0842604E08E2602E0E62600E094266389B2B29A4200D23BE1A089904200D237E10620225E90B20190002800D130E1C008009090B2DE
:400A0000400702D00098013000902069002802D0F51A405D019088B2049091480068050060352D78AD0700D482E023898AB2013BD318059A019D013AAA181BB2C56D12B240
:400A40000598A84705902179002933D163890820225EF31A5343009A049153430821625E0499914200DBF9E0009A019DD2180792079A934219D02E005A1C06922268083E5F
:400A8000D75CB6B2002D0CD0012302981F4200D10398013D059BADB298477F08B542F1D100E02E00069B3500E2E7049A013292B20492D3E7012900D0D0E065890822A35ED6
:400AC000761B5E430623E55E00277543FF260822A35E9F4200DBC1E0019BEB1800932B00009A93421ED05A1C049222680298D35C802203995200D21A304031405143584327
:400B0000401802990012B1435943039B3040B3435343CB181B12B343184380B2059B9847049BDDE70622A35E0137ED18BFB2CEE72179002948D10821625EF31A5343009A83
:400B4000049F5343049A0820215EBA1A92B28A4200DB83E06A46958A009AD2180992019A0792099A93422CD02E005A1C089222680836D35CB6B20693079B002B1DD0384BCC
:400B8000069A9C46012339B228B21A4204D063461B68029A1B6803E063461B68039A1B689847069B01355B080693079BADB2013B9BB20793AE42DFD100E02E00089B3500C4
:400BC000CFE77A1C97B2BDE7012947D1FF27F61A0823E55E6E437243049E0092049B0821625EF31A9BB2934238DA6B469D8A019B5B199BB20693009B069A954226D05A1C27
:400C0000079222680398D15C029A80233A404A4338409446020002985B00B8435B1A414303985A43B84343436244CB1812121B12BB433A401A430A4B28B21B6892B21B6865
:400C400031B201359847ADB2079BD5E70622A35E009A0136D3180093B6B2BFE70BB0F0BDE801002037B506AC2588044C246800952C340194FFF786FE37BDC046E80100209A
:400C8000F0B50F001600050085B003903078002833D01B4B81B21A680136D38E9942F5D3148F8C42F2D30424115F0A2801D10D00ECE7D46B002C02D0C31AE45C01E0548EA5
:400CC000E4B22B19994206DC4121938E5156039DCB18DF193FB2131D0632D28FDB8F290000923A00FFF7BEFF054B1B6840331B785BB21C1965192DB2C8E7280005B0F0BD3B
:400D0000E8010020022807D8044BC0001B6818180323C164503003707047C046E801002002280AD8054BC0001B68181850300378DA0702D50222134303707047E8010020AC
:400D4000F0B506001F00012485B0029103922100300004F001FD029B984202D3029B5C43F5E700230193002C25D02100300004F0F3FC21000500300004F074FD20000E008B
:400D8000029904F0E9FC019B0400002B03D1002D01DC0028E7D17A1C3023092D04DD03990733002900D120335D19019B3D70013301931700D7E73C7005B0F0BDF0B50600FE
:400DC0001F00012485B0029103922100300004F0C3FC029B984202D3029B5C43F5E700230193002C25D02100300004F0B5FC21000500300004F036FD20000E00029904F0E2
:400E0000ABFC019B0400002B03D1002D01DC0028E7D17A1C3023092D04DD03990733002900D120335D19019B3D70013301931700D7E73C7005B0F0BDF7B50F0030210600E3
:400E40000191002B01D120330193089D2B001978002901D1140004E00133002A08DD013AF5E7002C04DD01993000B847013CF8E701356B1E1978002902D03000B847F7E704
:400E8000F7BD03685A1C026019707047F0B5070015001C008BB002912978002900D1C2E0252901D001357FE06A78302A02D0AE1C002302E00123AA78EE1C049300230393E2
:400EC0001300303B092B18D831000A201300303BDDB20E00092D06D8039A4243D31803930A780131F2E7313B052B03D91300413B052B02D80A330A2BEEDD6C2A36D1327801
:400F0000751C632A35D006D8252A4CD0582A0CD0002AC1D187E0732A37D002D8642A74D0BAE7752A52D0782AB6D11021583A53425A41261D07AB2068FFF702FF34000CE062
:400F4000582A35D1583A251D53425A41206807AB10212C00FFF732FF350007AB0093039A049B02993800FFF767FF95E7632A07D1350021683800C9B2029B261D98470DE044
:400F8000632A0DD9732A17D135002368039A0093029900233800261DFFF74EFF34007BE7252ACDD1350025213800029B984773E7002A38D035006FE7732A02D8642A15D01A
:400FC000F8E7752A07D0782ABCD0F3E7261D07AB00220A21AFE700220A21231D2068059307ABFFF7EBFE3500059CB6E72068231D059307AB002805DA2D221A700D2304AA3B
:4010000040429B1800220A21EBE72068261D07AB002805DA2D221A700D2304AA40429B1800220A2188E70BB0F0BD0000014B196058607047F40100200FB407B5054804AB04
:4010400004CB016840680193FFF720FF03B008BC04B01847F40100200EB40FB505AB04CB0190064901A80393FFF710FF0023019A137004B008BC03B01847C046830E0000BD
:40108000F0B50E001C0085B001902100150033000A9F0C001E002A003B00AE4204DD270035001C001600F6E7019B9E4247DA9D4247DDA74245D0AE4207D1E00F0419F80F45
:4010C000C01964104710E0193CE0381BC217831853400293019B02999B1B1B48039304F0C5FB039B984204DB174B72425B1B934213DAF30F9B195A10EB0F5B19E10F091969
:401100005B109B184A10F90FC9194910019889180A911A009842BCDCB7E7AD1B039B029E013301365E43691CA81904F015FBA74202DD013C201805E00134201A02E0200006
:4011400000E0380005B0F0BDFFFFFF7F70B50E0009491500040004F0FFFA07493060200004F080FBF531FF310800FA21890004F0F3FA286070BDC04660EA000010B50800CA
:4011800002F0DAFF10BD000010B50300411809488B420ED01A78040A544022095440A2B200026040140360405201504080B20133EEE710BDFFFF000007B53C21054B3C222A
:4011C00000934942044BFFF75BFF80B203F000FF07BDC04633430000CD1C000003003C3310B5782B01D8FFF7E7FF10BD10B50400002004F0EFF903F011FFE120400003F08D
:40120000DDFB054B18602000FFF7E8FF0022034B1A7004F0F7F910BDA0020020A4020020002800D10130044B1870044B1A78002A01D101321A707047C7000020A4020020DF
:4012400070B5224C2378022B12D0032B2DD0012B3AD1E1211E4B4900186803F0E9FB1D4B5B78002B02D03C20FFF7A6FF02232AE0174D286803F0BEFB002825D0154B032620
:401280001A785B78012A03D90520002B06D002E0002B03D03C204042FFF78EFFE12128684900267003F0C4FB0EE0094B186803F0A1FB002808D0074A1378013BDBB21370BF
:4012C000002B00D001232370207870BDA4020020A0020020C700002070B5264C23686268F53BFF3B934207D2A368462B02D9A368013B00E04623A360FA2362685B009A42FC
:4013000007D82C23A268FF339A4202D8A3680133A360A368E268934206D0A068002180B203F04AFAA368E360237C002B02D0002323741AE06368002B06D0552003F08AFA63
:401340006368013B636013E00B4D2B78012B0CD1637C002B06D0637C084AD318013B187803F078FA00232B7002E0022003F014F870BDC046FC010020BD0200203C6E0000E5
:4013800037B596200021400003F016FA02F022FD002003F0AFFB002003F038FF002003F0B5FB002003F0CAFB012004F033F9642003F010F8002004F02DF9642003F00AF801
:4013C00002F0FAFC174C200000F0FEF80323237000F0EAFC144D431C0ED00023134A40211370FA22696101936E33009392005A3B200000F0E9FB03E0402002F067FC6861E1
:40140000012003F09BFA03F017FA022002F0C4FF03F0AAFD064803F093FD0022054B1A7037BDC046A8020020FC010020C9000020D9120000BD020020014B18787047C04694
:40144000C9000020014B5869C0B27047FC01002070B5022002F096FF134C6368042B14D86368002B06D0552003F0F4F96368013B6360F5E7637C002B15D0637C0B4AD31848
:40148000013B187803F0E6F90DE001220525084B1A70552003F0DEF96368013D013BEDB26360002DF5D170BDFC0100203C6E0000BD02002070B505000120114B0C00197887
:4014C00081421BD06543100003F038FA0521280004F042F90B4C05216060280004F0C2F99625C9B2617463686D0028000021236003F062F9A560FFF7ABFF002070BDC0467B
:40150000BD020020FC01002010B5022002F044FF03F0D0F90023034A53605374024A137010BDC046FC010020BD02002010B5002803D00122024B1A7401E0FFF789FF10BD65
:40154000FC010020014B18787047C046BD0200200020044B10B51B78834201D100F09EFB10BDC046C90000200020044B10B51B78834201D100F09AFB10BDC046C900002094
:401580000020044B10B51B78834202D100F0AEFB012010BDC90000200020044B10B51B78834201D100F000FC10BDC046C900002010B503F0F7FF03231840024B187003F062
:4015C000F9FF10BD16020020024B1860012040427047C046C0020020F0B585B00D00070003F02AFE03F03AFE6B469E1D308030880021023080B203F027FE03F013FE1B4BD8
:4016000002AC1B68187802F0ABFC80235B421F43277001272B0E63702B0CA3702B0AE370257102F045FC124D002802D02B683B42F7D10521200002F02FFC01232C681C40A0
:40164000FCD102F0DDFB0B4D687002F0DFFB03F0F3FD3088210080B203F0F6FD03F0E2FD200002F07DFC687805B0F0BDC002002024000740160200207FB503F0DDFD03F0EB
:40168000EDFD6B469D1D288028880021023080B203F0DAFD03F0C6FD0522002102A804F03CFB012402F004FC134E002802D033682342F7D1114B1B68187802F051FC05214D
:4016C00002A802F0E9FB012334681C40FCD102F097FB0B4E707002F099FB03F0ADFD2888210080B203F0B0FD03F09CFD200002F037FC707804B070BD24000740C002002017
:4017000016020020F0B587B006000C0003F094FD03F0A4FD02ABD880D8880021023080B204AD03F091FD03F07DFD05220021280004F0F3FA7F231E406B46012701961B798D
:401740002B7002F0B5FB2E4E002802D033683B42F7D12C4B1B68187802F002FC0521280002F09AFB012332681A42FCD102F048FB254F787002F04AFB6B461B792B7002F006
:4017800097FB002803D0012233681342F7D10521280002F081FB012335681D40FCD102F02FFB787002F02CFBFF2300021B021840206002F025FBFF26236830401843000255
:4017C000206002F01DFB2368304018430002206002F016FB236806401E43266002F016FB03F02AFD02ABD888290080B203F02CFD03F018FD280002F0B3FB787807B0F0BD07
:4018000024000740C00200201602002073B50C001600050001A9FFF775FF019928004C4034406140FFF7D8FE014B587876BDC04616020020012210B5824081400020FFF783
:40184000E5FF014B587810BD16020020054B10B51A5C814082406C20FFF7D8FF024B587810BDC046DA6E00001602002010B501000020FFF7DFFF014B587810BD16020020B1
:4018800010B501000220FFF7D5FF014B587810BD1602002010B501000520FFF7CBFF014B587810BD1602002010B501000B20FFF7C1FF014B587810BD1602002010B50100FB
:4018C0000C20FFF7B7FF014B587810BD1602002010B501000D20FFF7ADFF014B587810BD1602002010B5F8241F2364010902034021401943F02308001B03110419400143BB
:401900001020FFF769FE014B587810BD1602002010B501001120FFF75FFE014B587810BD1602002010B50103090B1120FFF754FE014B587810BDC0461602002010B5010348
:40194000090B1420FFF748FE014B587810BDC0461602002010B50103090B1520FFF73CFE014B587810BDC0461602002010B501001C20FFF76BFF014B587810BD16020020D0
:4019800010B50521082819D009D80231022815D00139042812D0023101280ED10EE0032120280BD003D80131102807D005E00221402803D00139802800D000211820FFF7E8
:4019C00045FF014B587810BD1602002010B501001120FFF73BFF014B587810BD1602002007B56C2001A9FFF78DFE019B9803C00F0EBD0000F7B500230192214A04F042F8FB
:401A0000089C099D1422002312196B4104F03AF806000F0000211B481B4A80197941002304F010F801246442E51724184D41002D12D10F2C10D80120FFF7C8FF0021134878
:401A4000134A80197941002303F0FCFF01246442E51724184D4106E0FFF7C2FF002802D00020FFF7B3FF0198E4B260436421323003F0FCFE08222100C0B2FFF733FFF7BD76
:401A800078E706004088DB608010B7C100E9A43500D2496B10B501000F20FFF7D7FE014B587810BD1602002010B501000720FFF7CDFE014B587810BD1602002010B50100F8
:401AC0000420FFF7C3FE014B587810BD1602002010B501000020FFF7B9FE014B587810BD1602002010B5064CA378584001405940C9B26D20A170FFF76FFD607810BDC0466C
:401B0000160200200B008340044A10B5115C81401800FFF7E7FF024B587810BDC16E00001602002010B501001820FFF7EBFF014B587810BD1602002010B501001020FFF72E
:401B4000E1FF014B587810BD1602002010B5064CE378584001405940C9B27020E170FFF73BFD607810BDC046160200200B008340044A10B5115C81401800FFF7E7FF024BC3
:401B8000587810BDAB6E00001602002010B501001220FFF7EBFF014B587810BD1602002010B501000820FFF7E1FF014B587810BD1602002010B501000020FFF7D7FF014B5B
:401BC000587810BD16020020F0B51600002487B003930CAB1F880DAB1D782B4B18600800FFF7CEFE0120FFF769FE0120FFF770FE0020FFF73BFE039A210030000097019495
:401C0000FFF7F8FE7F20FFF783FE2800FFF738FE0120FFF7BBFF0A20FFF7C2FFFF20FFF7C9FF0120FFF7A2FE0420FFF751FF0220FFF730FF0420FFF741FF144D2000FFF786
:401C400033FF0120FFF726FE2800FFF76BFE0120FFF768FF2800FFF77DFE0D48FFF76EFE0C20FFF769FF0120FFF71EFE05A90120FFF748FD03F090FC064803F07BFC064B53
:401C80001C7007B0F0BDC046C0020020FFFF0F00FF1F0000B1150000160200200022024B18781A70C0B270471602002013B56F2001A9FFF727FD01A90120FFF723FD00201D
:401CC000FFF706FF0420FFF703FF03F06BFC0323054C18402070FFF7CFFC0F22237810401B011843C0B216BD1602002037B5012401A96F20FFF706FD019B1F25D90F1F48D1
:401D0000FFF79AF9019B1E48990F2140FFF794F9019B1C48590F2140FFF78EF9019B1A48190F2140FFF788F9019B1848D90E2140FFF782F9019B1648990E2140FFF77CF926
:401D4000019B1448590E2140FFF776F9019B1248190E2140FFF770F9019B1048190C2940FFF76AF9019B0E48D90B2140FFF764F901990C482940FFF75FF937BD416E0000B4
:401D80004D6E0000566E00005F6E0000696E0000736E00007D6E0000856E0000906E0000986E0000A36E000007B56F2001A9FFF7A9FC01980EBD00000122014B1A70704788
:401DC0001A020020012210B5024B5A7001F08AFB10BDC0461A02002010B502F0A3FA064802F08EFA03F054F8044803F03FF8044803F03AFA10BDC046C51D0000B91D000054
:401E0000CA0000200221044B1A780A431A701A7849180A431A7070471C0200200421064B1A780A4202D01A788A4302E001211A780A431A707047C0461C02002010B502F07A
:401E4000F3FE094802F010FF084802F093FE9620400002F0BFFA02F09FFE02F017FF0022034B1A7010BDC0461D1E0000051E00001C0200200120034B19781A7882431A70CA
:401E8000084070471C0200200221044B18781A7880078A43C00F1A707047C0461C02002010B5322003F046F90022014B1A7010BDDA00002070B50600182001F00BFE0C4DEB
:401EC00004000C486E70FFF7B7F86A780823002A03D01C43E4B2084802E09C430748E4B2FFF7AAF82100182001F06EFE70BDC046DA000020136F0000206F0000256F0000F2
:401F0000014B58787047C046DA0000200B4B1A78D2B21000012A0DD01A780120022A09D01A78032A06D01A78042A03D01878053843425841012318407047C0462002002004
:401F4000014B1878C0B27047200200200A4B70B51A780124002A0CD01A78052A09D8072200251A70054B9D60FFF7CEFA044B1C702C00200070BDC04620020020C8020020D8
:401F80005803002070B5144C01252378002B20D02378042B1DD8114B186802F02BFD104B1A68101818600F4B186802F023FD0E4B65701A68101818602378DBB2A370FFF7A6
:401FC0003FF9002801D1052323700120FFF7AEFA0025280070BDC04620020020C4020020E4020020EC020020E802002070B50E4D01202B78052B12D100240C4B00211868FC
:4020000002F016FD0A4B0021186802F011FDAB782000DBB22B706C70FFF788FA20000122044B1A7070BDC04620020020C4020020EC0200205803002000200122074B1861D8
:402040005861D86098609880054B1860054B1860054B1870054B1A707047C046C8020020E4020020E80200202002002058030020FA2200239201904203D8034B80B2188012
:40208000012318007047C046C8020020FA2200239201904203D8034B80B25880012318007047C046C802002010B5064B9878FFF7B7F8FFF7C5F8002803D0082002F006FBEF
:4020C000F7E710BDDA00002070B50C000500080002F034FC074B220019682800FFF7EAF9FFF730FA002803D0082002F0EFFAF7E770BDC046F0020020094B10B500221968E8
:40210000FFF7D8F9FFF71EFA041E03D0082002F0DDFAF7E7012002F011FC200010BDC046F0020020014B98687047C046C8020020014B18687047C046E402002010B5FFF7A4
:402140007BF9002804D1044B58684001C00F01E0FFF7DCFE10BDC04620020020014B1878C0B27047DA000020014BD8687047C046C8020020014B588880B27047C8020020D8
:40218000014B988880B27047C8020020014B188880B27047C8020020014B187A7047C04620020020014B58697047C046C8020020024B58881B8858437047C046C80200207E
:4021C0000922034B1A70034B083A1A707047C04620020020580300200822034B1A70034B073A1A707047C046200200205803002010B5FFF721FF0022024B1A70024B01325F
:402200001A7010BD200200205803002010B50B4B1A7A1C00012A02D1002002F08BFF02F08FFF074B312802D9227A002A00D001221A701878431E9841C0B210BD2002002091
:40224000DA00002070B5150004AA127804000026805F012A06D0002A02D0022A18D025E0012212E0124AD27855426A41524210400A2250430918994201DC218004E00122B2
:40228000FF21A52001F034F90022094BDA700DE0074B0A21DB785A4253415B421840053003F0E4FAA842EADB2080EDE770BDC046DA00002037B505000024042817D80D4B9B
:4022C00001A91A888000120A0A701A8801344A705A88120A8A705B880422CB7001F0AEFC042D04D022000449032001F001F920003EBDC046C80200205555000010B5114CBB
:402300002378002B03D023780120062B16D1FFF793FE0420FFF7CEFF012323700A4B0021186802F085FB094B0021186802F080FB074B0021186802F07BFB00200122054B53
:402340001A7010BD20020020E0020020EC020020C4020020580300200A4B70B51B7804000D000120002B09D1FFF766FE064BADB2A4B204205D801C80FFF79CFF0122034B10
:402380001A7070BD20020020C80200205803002013B501AC21000422800001F0CFFBA278E37812029A18094B92B25A8022786178120200208A1892B21A80012298809860C1
:4023C000D86018615861024B1A7016BDC80200205803002010B50024084B04201C70FFF7D7FF0222064B20001A70064B9C801C619C60DC605C61044B1C6010BD20020020D4
:4024000058030020C8020020E402002010B504000020032C0ED8183001F05CFB06236100984319400143C9B2182001F0CDFB0120014B9C7010BDC046DA000020014B987893
:402440007047C046DA00002013B5042201A9142001F074FB019B1CBAFEF7F4FF6043000A16BD000010B5FEF78BFF3C204042FEF7BDFE02F08BFE02F0BBFE194802F0A4FEB2
:40248000FFF7E2FF174B1860FFF7A4FF012002F095FA154B1860FA20800002F08FFA134B1860134802F08AFA124B1860182001F011FB01210300104A0B4001D0117200E094
:4024C000137243070D499B0F8B700823184002D0073B4B7000E048700023137010BDC046A11E0000F0020020EC020020C402002050C30000E002002020020020DA00002099
:4025000070B50B4B0B4D1A781C00002A08D0002323702B7002F004FF02F014FF012006E02B78002BF3D1FFF7A5FC0028EFD170BD1B0200201A02002010B5FFF79BFC002895
:4025400015D0154B1878C0B2072810D803F0F0F804070707070A0F0DFFF7D0FE07E0FFF711FD04E0FFF742FD01E0FFF733FFFFF78BFC00280FD0FEF7F7FF074B1B78DBB22A
:40258000002B08D0052B04D90A2B04D1FEF7ECFF01E0FFF7DBFC10BD20020020F0B587B0FFF7CAFFFFF732FEBF4EC04C3078217AC0B200F003FBFFF7C1FD051E09D06420B3
:4025C00002F062FDFEF7E8FF606002F02BFAE06009E002F027FAE368C01AB54B984202D9280002F051FDB34D287800F0EFFD2078C0B20B2800D9A3E203F0A4F80C007A002D
:40260000A700C500DB00800114019E013102DF01B7018602012702F079FE00282FD00F2502F098FE02ABED1828702B78DBB22A2B09D004D8232BEED1FFF7CEFDEBE7413BB7
:40264000032B0CD9E7E702F0BFFF002804D170787840FFF72FFCDEE7FFF7B2FDDBE702F0B3FF002805D128784138C0B2FFF722FED1E728784138C0B2FFF78AFECBE7012503
:402680000B2602F055FE00287AD002F079FE0F2302AA9B1818701B78DBB2302B11D009D8232B20D02A2BECD1FFF7A2FD3220FFF723FDE6E7392BE4D80020267000F0DCFDBA
:4026C000DFE7237A18206B40237201F003FA0300227AAB43D9B2002A01D02843C1B2182001F072FACDE7FFF783FDFFF7DDFCC8E702F016FE02F026FE3378002B01D1FFF729
:4027000041FC6D4B59881A0000290DD0198800290AD01888694B80B201221968FEF7CAFE002806D00A2302E00023D3600633237006E2634D286802F05DF9011EF2D1022372
:402740002868237002F074F9FAE13378002B01D1FFF718FCFEF7F6FE002804D1B078FEF75FFD03232370FEF717FF6060FEF7F0FE002801D00A23237002F0D2FD02F0E2FD39
:4027800000232374DCE13378002B01D1FFF7FAFBFEF756FD002807D16378002B02D06070052300E0042323700023237402F0B8FDA1E0444B186802F01DF90021424A13683C
:4027C0001160C0183C4BD86019885A698A185A619A88013292B29A8099885A88914201D3062200E001222270D9681A698A181A615A889888D968121A4A439A6099885A881C
:4028000089B292B23148DB68FEF716FC01232B7002F086FD02F096FD3378002BB0D1FFF7B1FBADE7237C002B28D1294B0126186802F0E0F8274B33211A682E7010181860E2
:402840000322552000F054FE2348FEF7F5FB2348FEF7F2FB267411E00F2502F07BFD02ABED182870FFF7E8FB2B78DBB2392B0FD8302B15D2232B06D1FFF7AEFC02F046FDDC
:402880000028E9D12CE02A2BF8D1FFF799FCF5E7413B032BF2D828784138C0B2FFF778FD00232370EAE7C046DA000020200200200F27000058030020C8020020F0020020C5
:4028C000E0020020EC020020E80200207A6F0000C4020020E4020020A16F0000B36F0000FFF7C8FA002802D0FFF7A6FB03E0FFF7CBFA0028F8D102F025FD21E1012602F0B0
:4029000017FD00280CD002F03BFD0F2302AA9B1818701B78302BF2D1237A73402372EEE7237C002B05D101338A4823742B70FEF783FB02F0F5FC03E1237C002B0DD10126F0
:40294000854B2674186802F055F8844B2E701A68101818608248FEF76FFBFFF7D1FD002800D1EDE0FFF768FBEAE0237C002B0BD1012605225521FF202E7000F0B9FD3000CC
:40298000FEF7D4FDFEF7FCFD01232374FFF772FA002803D0FEF700FE00F012FDFFF774FA002800D1CCE0FFF7D1FA0020FEF7BEFDFEF7DAFDFFF740FBC0E0012702F0A6FC66
:4029C00000283CD002F0C6FC0F2202ABD21810701378DBB22A2B15D006D8232BEED12F70F770FFF705FCE9E7303B092BE6D8FA2311789B01303909B2009700225948FFF78A
:402A000021FC0EE0022300220093110008335548FFF718FC544B1888598880B289B2FFF79BFC2F70CAE702F0ABFC0F2302AA9B1818701B78DBB2232B06D1FFF7D9FB02F0A1
:402A400077FC0028EFD17BE02A2BF8D1FFF7D0FB012000F0BBFB3220FFF74EFBEFE7434B1A780393002A45D0012702F04FFC00282CD002F06FFC0F2202ABD21810701378E5
:402A8000DBB22A2B18D00CD8232BEED1364BF7701888598880B289B2FFF75EFCFFF7A8FBE3E7303B092BE0D8FA2311789B01303909B20097002204E000220223110000938D
:402AC00008332948FFF7BEFB2F70CEE7039B187010E002F055FC0F2302AA9B1818701B78DBB2232B0BD1FFF783FB012000F06EFBFFF7DAFA02F01CFC0028EAD120E02A2B71
:402B0000F8D1FFF775FBF5E702F000FC00280BD002F006FC637C0133DBB2022B00D900236374607C00F0A8FB02F002FC002807D002F0F6FB02F006FCFFF75AFB02232B70C5
:402B400001F070FF63690A4AC31A934200D9606107B0F0BDB66F0000C4020020E4020020C66F0000CA020020C80200201B020020E703000010B50648FEF75EFA19220549F9
:402B8000002001F05BF80448FEF756FA10BDC046D76F0000FA6E0000EA6F000010B50120FDF79EFD0020FDF731FE0348FDF7CAFE0020FDF7CFFE10BDE0FF000070B5164B74
:402BC00005001A780C00824205D15A788A4202D19A78002A1FD000201D705C70FDF7B2FE002D09D0002C01D00C4801E0FC20C000FDF7B0FE0A4A04E0F8200002FDF7AAFE3B
:402C0000084A72216120FEF73BF80020FDF7A2FE0548FDF797FE70BDDE0000203EE70000F26F0000F96F0000E0FF000013B50020FDF7ECFD0420FDF79DFE0F48FDF7A0FD24
:402C40000020FDF787FE0D48FDF77CFE0C4A00210720FEF715F80020FDF78CFEFDF782FE0D23084C0200190000940020FDF7E0FD2000FDF767FE13BD885F0000FF070000EC
:402C800000700000E0FF000073B5FFF759F9224C0600E378834202D1A378002B3AD0092E14D11E48FDF756FE0020FDF74BFE1C4A12210020FDF7E4FF0020FDF74BFE17482B
:402CC000FDF740FE174A12213C2020E0082E1BD11248FDF73FFE0020FDF734FE124A12210020FDF7CDFF0025FDF73CFE1E230200122100956920FDF74FFD0848FDF722FEC5
:402D00002800FDF727FE04E012210020074AFDF7B7FFE67073BDC046DE000020E0FF00000E7000003D7000001B7000003170000070B5FFF705F9284D06002B79834202D190
:402D4000AB78002B47D0254C0D2E38D8300002F0EFFC07090909090E131C27252A2727271F4A28E01F48FDF7EDFD1F4A23E01F48FDF7E8FD1E4A1EE0FC20C000FDF7EAFD53
:402D80000020FDF7DFFD1B4A15E0F8200002FDF7E1FD0020FDF7D6FD174A0CE0174A0AE0002323700BE0F8200002FDF7D3FD0020FDF7C8FD124A13492000FEF74DF92200D1
:402DC00012214C20FDF75CFF0020FDF7C3FD0748FDF7B8FD2E7170BDDE0000205903002042700000FF07000050700000E0FF000059700000617000006C700000C56F0000D2
:402E0000747000004B70000070B5FFF799F8092802D1FFF7AFF906E0082802D1FFF7B6F901E0FFF7ADF9124C0500E388834202D1A378002B1BD00F4E2A0030000E49FEF700
:402E40000BF90E48FDF79CFC320000232C26581CD3181978202902D11E700300F7E71E210420FDF70DFF0648FDF78AFCE58070BDDE000020590300207C700000605F000068
:402E8000885F000070B5FFF775F90A4C06002389834202D1A378002B0BD0074D320007492800FEF7D9F82A0045210020FDF7E8FE268170BDDE000020590300208070000055
:402EC00070B5FFF763F90A4C06006389834202D1A378002B0BD0074D320007492800FEF7BBF82A0053210020FDF7CAFE668170BDDE000020590300208E700000F8B50400FD
:402F00000D00002802D11C4A1C4904E01C4B984205D802001B491C48FEF79EF82AE01B4EB04212D9310002F09DFCF531FF310800FA21890002F010FC31000700200002F011
:402F40000BFC3B000200124911E0FA21890002F089FC32310800642102F0FEFBFA2106008900200002F0F8FB3300020009492800FEF772F8F8BDC046C56F0000C3760000E6
:402F8000E7030000947600005903002040420F00A0700000A870000030B589B0FEF7D0FF092204001B4902A802F0AEFE09221A4905A802F0A9FE002C03D0083CE4B2012C51
:402FC00003D8FFF7F5F802AC02E0FFF7EBF805AC431C03D1114B9B78002B18D0104D2900FFF78CFF220053215620FDF749FE2A0045215620FDF744FE0400FDF7B3FC0023F0
:4030000002000093452151332000FDF7C5FB09B030BDC046AF700000B8700000DE0000205903002073B5FEF78BFF0500FFF77AF8AB1FDBB206001C4C012B17D8237BAB4251
:4030400002D1A378002B04D0184A61210020FDF717FEFFF76DF83C2102F004FC0191FFF767F83C2102F078FB00900FE0237BAB4202D1A378002B04D00D4A61210020FDF71F
:40308000FFFD01AA69463000FEF760F82573094C019B009A20000849FDF7DEFF220061214C20FDF7EDFD73BDDE000020C1700000CF70000059030020DD70000037B5FEF7A2
:4030C0003FFF354C0500637B834202D1A378002B60D0FDF747FC314B020000936E2300201900FDF7A5FB2E48FDF72CFC0A2D4DD8280002F01DFB064B4B4B4B4B262632322D
:403100003E00284A72210020FDF7BAFD2648FDF737FB264A72211620FDF7B2FD244A72211F20FDF7ADFD234A72213B20FDF7A8FD2148FDF725FB214A72214520FDF7A0FDCE
:4031400024E01F4A72210020FDF79AFD00236022009372217E33412016E01A4A72210020FDF78EFD00236022009372217E335A200AE0154A72210020FDF782FD0023602231
:403180007221562000937E33FDF706FB0348FDF7D9FB657337BDC046DE000020E0FF0000FF070000E9700000745F0000EF700000F2700000F7700000885F0000FA70000060
:4031C000007100000E7100002171000073B500284AD0264E022814D10123B370FFF726FD4F22234B4621100000936023FDF720FBFEF7B4FF0400FEF7CFFF01002000FFF7FF
:40320000DDFCFFF741FDFFF793FDFFF7FDFDFFF739FEFFF755FEFFF7BFFEFFF703FFFFF74DFFFEF78BFF051E0DD0FDF79BFB0400FDF798FBF823053C1B020200009320B234
:40324000052300210AE0FDF78DFB0400FDF78AFB05232900053C0200009520B2FDF79CFA0023044AB370137073BDC046DE000020E0FF000058030020F7B505000A240020F9
:40328000FDF7C4FA0420FDF775FB6C433E48FDF777FA0020FDF75EFB3C48FDF753FB3C4FA400E25900210720FDF7EAFCFDF75AFB0D23384E0200190000200096FDF7B8FA05
:4032C0000020FDF757FB3000FDF73CFB012D0ED8122500263319FB1829B25A6800200C350436FDF7CDFCADB2242EF3D14AE0022D48D1294A12210020FDF7C2FCC4B2FEF77E
:403300009BF8264A012800D0254A12212000FDF7B7FC244A1E210020FDF7B2FC0600FEF791F8214D214F020039002800FDF794FEFF2430002A0020401E21FDF7A1FC1C4A5B
:403340002A210020FDF79CFC0600FFF777F8390002002800FDF780FE30002A0020402A21FDF78EFC134A36210020FDF789FC0440FEF7C6FD104A002800D1104A3621200026
:40338000FDF77EFCF7BDC046885F0000FF070000EC000020E0FF000048710000337100003971000059710000590300208A760000667100007271000041710000447100009F
:4033C00070B504000020FDF721FAFFF72FFC0420FDF7D0FA224A12210020FDF751FC0020FDF7C8FAF8200002FDF7ACFA0020230204D51C4A1E21FDF743FC0120A3020AD54D
:403400000D21451C48430100EDB21E31164A0020FDF736FC280063020AD50D21451C48430100EDB21E31114A0020FDF729FC2800A3010AD50D21451C48430100EDB21E3120
:403440000B4A0020FDF71CFC2800E30107D50D2148430100074A1E310020FDF711FC70BD8471000091710000A7710000B1710000BB710000CA71000010B501F03BFD10BDE8
:4034800070B5154C154B2268002A21D01A78002A1ED001F0C7FA63680500C31A632B19D92389A27A00201341DB0701D50C4B187801F02EFDA37A65600133DBB20F2B01D053
:4034C000A37207E00023A3722368013B236001E000221A7070BDC04638020020730300204001002010B5012001F012FD10BD0000044B1A60044A198110700122034B1A705E
:403500007047C04638020020400100207303002010B50748FDF790FD064C2000FDF78CFD2000FDF789FD044800F044F910BDC0466C730000C36F00007803002010B500F0B2
:403540008DFAFFF7E5FF0748FDF776FD00231900054A064813601A18013311700F2BFAD110BDC046B36F00007403002078030020F0B5002485B0039400F06CFA0F21594D14
:403580000090594E286803AA091A801900F068FA039BA34200D1A2E02A689B182B60325D0D2A04D0A34200D18EE00134F7E7A34200D889E0002C00DA86E001235B429C46DD
:4035C00000272C257D43009B5D192A68002A48D06346013357D12B79434901930023CE5CD05C0133864209D10A2B09D03E48C05C0D2805D02026B043F1D101E0002200E0FE
:403600000122019999422AD1002A28D06B79002B02D13648FDF710FDAB68334898476B79002B1AD1314E00280ED03148FDF704FD2D48FDF701FD3000FDF7FEFC2D48FDF72C
:40364000FBFC28000C3003E03000FDF7F5FC2A48FDF7F2FC3000FDF7EFFCBC46B1E70137AFE7002C0FD0634601330CD16B79002B09D11E4E3000FDF7DFFC2048FDF7DCFCDF
:403680003000FDF7D9FC174A23001000164916680F1B1A1B9E4203D9CA5CFA540133F8E7002411490E2A03D857183C700132F9E7F31A03606B79002B11D10C48FDF7BCFCDE
:4036C0000F48FDF7B9FC0AE00E2B08D900231900F218013311700F2BFAD100232B6005B0F0BDC0467403002078030020C36F00008B730000937300009A7300009D7300002B
:40370000B36F000073B50E000024050002F0D0FA2200046001A9280002F09AFB019A3060230095420ED01278A2420BD1064BC0180123C21C06D902F0BBFA0368223B581E31
:403740008341DBB2180076BDFFFFFF7F73B500252B008D420BD00F2B06D0C45C0133203C664274412D19F4E70023102404E000240F2B01D123001034C31800201D780D2D35
:4037800008D0202D06D0072806D06946455401301D5CF4E7072801D1102409E0002C07D16B4611001C546846FFF7ACFF0028F3D0200076BD0C4BA82270B51C0092000C3427
:4037C0009D1823000C3B1868FDF736FC0748FDF733FC2000FDF730FC2C340548FDF72CFCAC42EED1002070BDB073000070760000C36F000010B5FFF7BDF90248FDF71CFC8D
:40380000002010BDC36F000013B5012101AAFFF79DFF019B1024D8B2FEF7F8FD002804D001990448FDF708FC00240348FDF704FC200016BD74760000C36F000030B587B096
:40384000FEF77EFB002501AC20706570FEF792FC030AA370E070FEF799FC030A23716071FEF78EFC030AA371E071FEF75BFC030E2372030C6372030AA372E072FEF774FC14
:40388000030E2373030C6373E073030A10212000A373FDF779FC1221030A60742000237400F080FC280007B030BD000013B5012101AAFFF74BFF019904000948FDF7BCFBDA
:4038C0000848FDF7B9FB00210198FEF7FDFB0300FF20002B03D1601E84416042C0B216BD8D760000C36F000013B5012101AAFFF72DFF019904000948FDF79EFB0848FDF732
:403900009BFB01210198FEF7DFFB0300FF20002B03D1601E84416042C0B216BD99760000C36F000010B5FEF7BFFB431E98414042C0B210BD10B5FEF77FFB431E984140427C
:40394000C0B210BD10B5FEF701FB431E98414042C0B210BD10B5FEF7D1FC431E98414042C0B210BD07B5012101AAFFF7EFFE0198FEF78CFB102300280AD001990548FDF744
:403980005BFB0548FDF758FB0122044B1A70002318000EBDA2760000C36F00005803002007B5012101AAFFF7D1FE0198FEF760FB102300280AD001990548FDF73DFB05488A
:4039C000FDF73AFB0122044B1A70002318000EBDAC760000C36F00005803002010B50748FDF72AFBFDF728FD0549012800D005490548FDF721FB002010BDC046D67100005B
:403A00003371000039710000B376000010B5FDF7B7FD002805D10448FDF70EFB0348FDF70BFB002010BDC046C6760000C36F000007B5012101AAFFF789FE019B002B02D016
:403A4000FEF7A0FA01E0FEF7D1FA431E98414042C0B20EBD00487047B073000000207047F7B5070016000024019100F057FB002813D0019B9C4210D200F01CFC084BC5B22A
:403A80001B78002B03D0FF23184000F055FB0A2DEBD03D550134E4B2E7E734600020FEBDDB00002010B5002001F098F9014B188010BDC0468A03002010B501F0C1F90448AD
:403AC00001F0ACF901F072F901F07EF910BDC046A53A000073B50600012400F0E9F9164D002802D02B682342F7D1022000F038FA0323002001AC2370330A6370E070A67038
:403B000001F074FD0421200000F0C6F901232C681C40FCD1012001F069FD00F071F900F06FF900F06DF900F06BF90500200000F017FAE8B276BDC04624000740F0B507006A
:403B4000002085B001910092824238D0012400F0AFF91C4D002802D02B682342F7D10326022000F0FDF903AC3B0A002063702670A77001F03BFD3100200000F08DF9012347
:403B80002A681A42FCD1012700F040F9019C009BE618B4420AD0002000F048F92B683B42FCD100F02DF920700134F2E7012001F01DFD00F02BF9002000F0D2F9012005B020
:403BC000F0BDC04624000740F7B506000F00012400F06EF9184D002802D02B682342F7D1022000F0BDF9022301AC23700020330A6370A670E77001F0F9FC062000F016F976
:403C000001232E681E40FCD1012001F0EFFC300001F0ECFC0421200000F03EF901232C681C40FCD1012001F0E1FC00F0EFF8200000F096F90120FEBD24000740F0B50600F5
:403C4000002085B00C00019282423BD0012500F02FF91D4F002802D03B682B42F7D1022000F07EF9022303AD2B700020330A6B70AE7001F0BBFC062000F0D8F801233E685E
:403C80001E40FCD1012001F0B1FC300001F0AEFC2800032100F000F9019BE518AC4204D0207800F0C3F80134F8E701233C681C40FCD1012001F09AFC00F0A8F8200000F02F
:403CC0004FF9012005B0F0BD2400074010B5041E03D0102802D9102400E001240023621ED2B2002A03D001335208DBB2F9E7034AD05C01F085FA200010BDC0461677000000
:403D000010B501F0D5FF03680C2B00D1FEE7FEE7F8B500250F49104B01394A1C14D000221F685C689E68A018B24203D0B858A0500432F8E70200DE68141AA64201D020C29B
:403D4000FAE710330139E8E701F0B8FFFCF71EFBFEE7C04601000000707B0000002370B50A480B4C0B4D9A002100032B00D8A95801338150302BF6D1FCF74EF9802201215B
:403D8000D20513680B43136070BDC04600000020013D0000000000008021064A10B5136809060B4313600B2000F0ECFA00F08EF810BDC0460000074010B5054C2378002BF1
:403DC00003D100F0DDF801232370FFF7E5FF10BD4402002010B50B2000F0DEFA00F092F8054A0B2013685B005B0813600022034B1A6000F0E5FA10BD00000740880F074063
:403E0000014B18687047C046400307408021054B49021A680A431A601968034A0A401A607047C04604030740FFFFFEFF134B144A30B515681C681900A54208D1114B1C68F7
:403E40000F232340082B02D00F4B186015E013680133402B00D100230C68A342FCD002210A4CC0B221600A4CE0541360094B1A680A4202D11A680A431A6030BDD003002027
:403E80008C0300200802074040020740800F074090030020880F074070B504004518AC4204D02078FFF7C2FF0134F8E770BD0000044A054B1B68116810688B4200D9403012
:403EC000C01A70478C030020D0030020F021F020084B09051A6800060A431A601A6802431A60054A13680B431360044B1A88044B1A607047000001400C0001404C02002085
:403F0000880F074070B501260F4B104D1868104CC008304000F0EEFD2B68300023402B6000F000FE2B6830001B011B092B6000F005FE084B1A6814401C60074B1A682023D5
:403F40001340064A138070BD2000074000000140FFFFFFF00C000140880F07404C0200200549064B0A6880061340C02212051040184308607047C04620000740FFFFFFF3A6
:403F8000072110B50024184A184B0B201A60184A184B1A60184B194A1360194A1160194A1360194B1C6000F0F7F903210B2000F0CFF916490B2000F0C3F9154B20001C606B
:403FC000144B1C60144B1C60144B1C60144B1C60144B1C601A68144B1A80FFF7C1FF134B1C60134B1C6010BD050000010000074001000080200007400701008000030740C1
:4040000004030740000207400402074035400000880E0740C80E0740480F0740080F0740C80F0740880F07404C0200208C030020D0030020154B70B51B68002B00D0984743
:40404000134B1B689B071FD50F20124C124A21681368994210D013680133402B00D100230E490F4DC95CC9B2296013600D4B1B680340082BEBD104E002210B4A13688B4312
:4040800013600222094B1A6070BDC046480200208C0F07408C030020D0030020900300204002074008020740880F0740800F07408021064A10B5136809060B4313600A200E
:4040C00000F060F900F0ECF810BDC0460000064010B5054C2378002B03D100F06FF801232370FFF7E5FF10BD50020020084B094A196813680020994208D013680133212B43
:4041000000D103000449C85C1360C0B27047C04624040020DC03002000040020044B1868044B1A681B68904200D22130C01A704724040020DC030020134B144A30B515681F
:404140001C681900A54208D1114B1C680F232340082B02D00F4B186015E013680133202B00D100230C68A342FCD002210A4CC0B221600A4CE0541360094B1A680A4202D130
:404180001A680A431A6030BDD4030020D80300200802064040020640800F0640E0030020880F064070B504004518AC4204D02078FFF7C2FF0134F8E770BD000010B5002489
:4041C00007211E4A1E4B0A201A601E4B1E4A1C601E4B1A601E4B1F4A13601F4A11601F4A063914601E4A11601E4A13601E4B1C6000F0D2F803210A2000F0AAF81B490A20F6
:4042000000F09EF804221A4B1C601A4B1C601A4B1C601A4B1C601A4B1A601A4B1C601A68194B1A80194B1C60194B1C60194B1C70194B1C60194B1C6010BDC0460B000002BE
:40424000000006404000064001000A00480006400700008000030640040306401003064044000640000206400402064055560000880E0640C80E0640480F0640080F0640A8
:40428000C80F0640880F06405802002024040020DC03002021040020D8030020D4030020024B1A88024B1A607047C04658020020880F064010B5FFF731FF0300002083426F
:4042C00001D0FFF713FFD822034B92001968114201D000201A6010BDC00F064010B5040001F0B0F9044A054B1168A4050B401C43146001F0ABF910BD04E400E0FFFF3FFF43
:4043000010B54024044B1C60044B98650320FFF7E5FF034B1C6010BD80E100E00000002000E100E04022014B1A60704780E200E0802380009B05C318186819607047000018
:40434000024B8000C31818681960704740000020F8B5032605003540B5400F0004000635AE40AF4001F06EF9A408054BA400E4182368B3431F43276001F068F9F8BDC046AA
:4043800000E400E01F2318401E3B8340014A13607047C04600E100E01F2318401E3B8340014A13607047C04680E100E01F2318401E3B8340014A13607047C04600E200E0E2
:4043C0001F2318401E3B8340014A13607047C04680E200E070B5802504002D02064BAC4205D9586801F024F9044BE418F6E79868604301F01DF970BD440100200080FFFF80
:4044000010B5034B1B7B584301F012F910BDC04644010020F0B5050087B001F013F9EB1E049003932D2B5BD8304B1B789D4204D82F4B1C782F4BE4B21EE02F4B1B789D4297
:4044400004D82E4B1C782E4BE4B215E02D4B1B789D4204D82C4B1C782C4BE4B20CE02C4B1B789D4204D82B4B1C782B4BE4B203E02A4B1C782A4BE4B21B78EA1EDBB20193F7
:40448000284B294F9A5C059302922F2A04D92A2D02D919263E6008E03F233E681E40029BB34205D2204B029A1A60052001F0C0F81B4B1E4AED182B780520DBB213601C4BA2
:4044C000019A1C601B4B1A60FFF79AFF029BB34206D9059B039A05209B5C3B6001F0A8F8049801F0B3F807B0F0BDC046C0F1FF0FC1F1FF0FC2F1FF0FC3F1FF0FC4F1FF0FD9
:40450000C5F1FF0FC6F1FF0FC7F1FF0FC8F1FF0FC9F1FF0FCAF1FF0FCBF1FF0FCCF1FF0FCDF1FF0F187A00002CFF0B4028FF0B401CFF0B4020FF0B408021034A09061368B1
:404540000B4313607047C04604010B4010B501F079F8C021034A090213680B43136001F075F810BD00010B4010B5802401F06AF80749084B0A68E4011A4022430A600A6809
:4045800013408022120213430B6001F05FF810BD00010B40FF3FFFFF0300044ADB0010680133D840012318407047C04610020B4070B505000C00FFF7EFFF00280AD10321CD
:4045C0000800ED00A8402140A940034A136883431943116070BDC0460C020B4070B504000D00FFF7D9FF00280BD10123E4000234A340044A116899430B002900A140194370
:40460000116070BD0C020B4010B50400FFF794FF0C4B1A6822431A60E20703D5022219681142FCD0E20504D58022920019681142FCD0E20304D58022920219681142FCD0CC
:4046400010BDC04610020B4070B505000C00C920FFF7D6FE064A280182408440054943200B6893431C430C60FFF7CAFE70BDC046FFFF000008020B4070B5050000F0E2FF1E
:404680000E4B04001A68C0231B02134011D10C480C49054028000E680B4A3240104308600A68012B01D1FFF751FF200000F0CEFF70BDFFF759FF0123E9E7C04600010B4084
:4046C0000404040010020B40FBFBFBFF044B054A196810400843186019681142FCD1704710020B4008080800042270B5224C2368134213D021490B6813420CD0204BDD6927
:4047000008681540A8430860D9699143D9611B69002B00D098470420FFF7AEFF80232268DB001A4215D015490A681A420DD0144AD56908682B4098430860D169114B0B40FF
:40474000D3615369002B00D098478020C000FFF793FF80232268DB021A420CD0074A12681A4204D0064B9B69002B00D098478020C002FFF781FF70BD10020B405801002040
:404780005C020020FFFBFFFF08230449C0000A689A43D2B2034013430B607047000004400423044980000A689A43D2B2034013430B60704700000440054A090413685B0D74
:4047C0005B051843F8235B0319400843106070478001024010B509490220FFF7B1FD03210220FFF7B5FD0622054B1A70054B41321A70054B453A1A7010BDC046ED4800007C
:4048000022000F4032000F4083000F4010B500F019FF10210400074A022013780B431370FFF7CEFD0220FFF7ADFD200000F00EFF10BDC04693000F4010B5054C2378002BB2
:4048400003D1FFF7C7FF01232370FFF7DFFF10BD7C02002070B5134CA2786178C9B28A4202D24B1E9B1A01E0531A073B5D426B41DBB2002BF1D10C4B8A4205D119784907D3
:4048800002D40A4B18700CE0072A00D900220849885402200132A2701B78034201D0FFF785FD70BD7C02002063000F4040000F402804002010B500F0C5FE0121094B1A78A0
:4048C0000A431A701A788A431A7000F0BFFE0220FFF762FD0022044B02205A709A70FFF751FD10BD90000F407C020020042130B50D4B0E4C0E481A782578954212D002786B
:404900000A400FD11D78072D00D91A701A78094DD2B2AA5C084DD2B22A701A780132D2B21A70E8E730BDC0467D0200207E02002063000F402804002040000F40012304496A
:404940000A689A43D2B2034013430B607047C04600000440144A70B513688026013313600022130011481249124C02607605042A15D093005D58002D0EDA1D59013D1D515E
:404980001D59002D08D15D5835435D505D5801355D50094D5D591D5101320123E7E7002B00D0026070BDC0464004002080020020440400205404002030040020002310B5B8
:4049C00009499A0054580133002C08DB074C1051074C1051802000065050180002E0042BEFD1002010BDC046440400205404002030040020002110B588420FD00322431E09
:404A00001340074C9B001A598A4207DA195989B2002903D01A59D20FD2071A51080010BD44040020014B18687047C046400400200323013818408000064B002900D01950C0
:404A40001A58054B1A50054A1358DB0FDB0713507047C0463004002054040020440400200022054B01388000C250044B044A8350044A83507047C046440400200000F0FF4E
:404A8000540400203004002010B50120FFF7E8FF0220FFF7E5FF0320FFF7E2FF0420FFF7DFFF10BD10B50E4B1A79002A07D101321A71FFF7E9FF0B490F20FFF739FCC020CF
:404AC000094A0A4B0A4953600B6A00061B021B0A03430B62002393600733136010BDC046800200205549000010E000E0DFAB000000ED00E04023044980010A689A43D2B297
:404B0000034013430B607047000004401023044900010A689A43D2B2034013430B607047000004407F23044AC00111680B401843C0B210607047C0460000044040230449C0
:404B400080010A689A43D2B2034013430B6070470003044010B5040000F074FDC021044AA40113688B431C43146000F06FFD10BD04E400E010B51024044B1C60044B186544
:404B80000320FFF7E7FF034B1C6010BD80E100E00000002000E100E01022014B1A60704780E200E08022094BD2021A603C22084B1A60084B3A3A1A60074A084B1A6032222A
:404BC000074B1A600022074B1A607047000105402401054038010540FFFF0000140105400C0105400801054070B50D000400AC4000F028FD024B1C6000F028FD70BDC046D6
:404C00000800054010B5012400F01CFD054A13682343136000F01AFD18212000FFF7E4FF10BDC0460000054010B5054C2378002B03D1FFF7B7FF01232370FFF7E3FF10BD88
:404C40008502002010B5040000F0FCFC044A054B1168A4030B401C43146000F0F7FC10BD04E400E0FF3FFFFF10B52024044B1C60044B58650320FFF7E5FF034B1C6010BDD8
:404C800080E100E00000002000E100E02022014B1A60704780E200E010B503210E20FFF757FB21490E20FFF74BFB01221F4B1A601F4B1B68002B01DB1E4900E01E491F4A8C
:404CC0008020136801240B43002113601C4A1D4B40021A601C4A1D4B1A601D4B1D4A19601D4B1A601D4A1E4B1A601E4A13680343136002221C4B1D4819601D4B19601D4BFE
:404D00001C601D4B1A6003681C4A13408022234303601B4BD2001A6080221A4B52011980194B1A6010BDC046F14D000020001A4080031A40700200507002105000001A40AD
:404D4000DC00008004001A400000FF0718001A401C001A400800040010001A400400040014001A4000031A4028021A4030001A4038021A4018021A40000F1A40FFFFFFDFE7
:404D800080001A406804002064040020064B10B51A68002A07DB80211A6809060A431A600A20FFF72DFB10BD00001A4010B5054C2378002B03D1FFF76FFF01232370FFF738
:404DC000E5FF10BD860200208021034A490213680B4313607047C04604001A400023984202D1024B1B689BB218B2704780011A40014B1A681A60704710021A4010B504004D
:404E000000F020FC044AA40713689B009B081C43146000F01BFC10BD00E400E010B50824044B1C60044BD8640320FFF7E7FF034B1C6010BD80E100E00000002000E100E04A
:404E40000822014B1A60704780E200E010B5040000F0F8FB044AA40713689B009B081C43146000F0F3FB10BD04E400E010B58024044B1C60044BD8650320FFF7E7FF034B98
:404E80001C6010BD80E100E00000002000E100E08022014B1A60704780E200E010B500F0D1FB1021034A13780B43137000F0CEFB10BDC04691000F40012110B5034A1378A0
:404EC0000B431370FFF7EAFF10BDC04671000F400723044A117899431170117803400B431370704781000F4010B50020FFF7F0FF10BD000010B5054C2378002B03D1FFF7B0
:404F0000F3FF01232370FFF7D7FF10BD87020020014B18707047C04601000F4010B5040000F090FB044A054B1168A4030B401C43146000F08BFB10BD08E400E0FF3FFFFF3A
:404F400010B58024054BA4001C60054B58660320FFF7E4FF034B1C6010BDC04680E100E00000002000E100E08022024B92001A607047C04680E200E080220C4BD2041A604C
:404F80001A680B491A6000220A60196819600C21084B1960084B1A60084B31321A60084A084B1A60084A094B1A607047C0010540C8010540E4010540F8010540E801054085
:404FC000FFFF0000D401054030110000CC010540014B80B218607047CC01054070B50D000400AC4000F02EFB024B1C6000F02EFB70BDC0460800054010B5082400F022FBEC
:40500000054A13682343136000F020FB18212000FFF7E4FF10BDC0460000054010B5054C2378002B03D1FFF7A7FF01232370FFF7E3FF10BD8802002080220C4BD2041A60DD
:405040001A680B491A6000220A60196819600C21084B1960084B1A60084B31321A60084B113A1A60074B103A1A6070478001054088010540A4010540B8010540A801054015
:40508000940105408C010540014B80B2186070478C01054070B50D000400AC4000F0D2FA024B1C6000F0D2FA70BDC0460800054010B5042400F0C6FA054A136823431360A2
:4050C00000F0C4FA18212000FFF7E4FF10BDC0460000054010B5054C2378002B03D1FFF7ABFF01232370FFF7E3FF10BD890200208022094BD2021A603C22084B08491A60A1
:405100000023084A1360084A1160C821074A1160074A13607047C0464001054064010540FFFF000078010540540105404C01054048010540014B80B21860704748010540B7
:40514000014B186880B270474801054070B50D000400AC4000F076FA024B1C6000F076FA70BDC0460800054010B5022400F06AFA054A13682343136000F068FA1821200034
:40518000FFF7E4FF10BDC0460000054010B5054C2378002B03D1FFF7ABFF01232370FFF7E3FF10BD8A02002010B5040000F04AFAC021044AA40113688B431C43146000F0C9
:4051C00045FA10BD0CE400E010B58024054B64011C60054B18670320FFF7E6FF034B1C6010BDC04680E100E00000002000E100E08022024B52011A607047C04680E200E0F2
:40520000014B18707047C04673000F402023044940010A689A43D2B2034013430B607047000004408021034A090613680B4313607047C04600000240024A13685B005B08BB
:405240001360704700000240034A13681B0C1B04034313607047C04600000240014B186880B270470000024010B50400044800F057F9072000F044F9024B1C6010BDC046C0
:40528000215400008C020020034A1268002A02D01318013B187870478C02002010B5FFF7F3FFFF2810D0094A094C11794B1CDBB213716054032B01D900231371022000F0D9
:4052C00041F9002000F03EF910BDC0468C0200206A04002010B5FFF7D7FFFF2810D0094A094C51794B1CDBB253716054032B01D900235371012000F025F9002000F022F95F
:4053000010BDC0468C0200206E040020034A53799079181A431E9841C0B270478C0200200022024B9A715A717047C0468C020020034A1379D079181A431E9841C0B270478E
:405340008C0200200022024BDA711A717047C0468C02002010B5FFF7D9FF002800D1FEE7054A064891794B1CDBB29371405C032B01D90023937110BD8C0200206E040020E7
:4053800010B5FFF7D5FF002800D1FEE7054A0648D1794B1CDBB2D371405C032B01D90023D37110BD8C0200206A04002000230122104206D10133DBB24008082BF8D1FF20BA
:4053C00000E01800704737B50F2000F071F8F02000F082F800F078F86B469C1D20700F2801D100201BE00F2000F076F8F02000F05FF800F07DF86B46DD1DD8710F28F0D05E
:405400002078C043C0B2FFF7D1FF04002878C043C0B2FFF7CBFF800004430134E0B23EBD70B5FFF7D0FF2049204C087008782100227A0931531CDBB223728854042B01D913
:405440000023237221000023FF2509315A5C01331540052BFAD16BB21800A17B4AB2104301D1A0731EE016009E4303D00023A573238217E0934305D02800FFF72BFF2682D9
:40548000A5730FE029420DD0228A182A02D80132228206E0A37C002B02D12800FFF7FEFE0123A37470BDC046720400208C0200200F23044A000111680B401843C0B21060AD
:4054C0007047C04600020440024B18680006000F7047C046040204400F2304490A689A43D2B2034013430B607047C04600020440024B18680F2318407047C0460402044009
:4055000010B5040000F09EF8C021044AA40113688B431C43146000F099F810BD00E400E010B50124044B1C60044B18640320FFF7E7FF034B1C6010BD80E100E000000020A3
:4055400000E100E0014B18707047C04672000F4010B5040000F076F8044A054B1168A4030B401C43146000F071F810BD00E400E0FF3FFFFF10B50224044B1C60044B58642E
:405580000320FFF7E5FF034B1C6010BD80E100E00000002000E100E00222014B1A60704780E200E0024B18688006800F7047C046040104403023034A106818401060000981
:4055C0007047C04610010440014B1878C0B2704760000F400423044980000A689A43D2B2034013430B6070470004044008230449C0000A689A43D2B2034013430B60704755
:40560000000404408022024B52001A607047C04680E200E008230449C0000A689A43D2B2034013430B60704700010440000000000230800804D0C0460138FDD1C046C046B6
:40564000C0467047EFF3108072B6704780F310887047C046254B70B51B68002B00D09847234B1B685B071CD520240F2021490B680133212B00D100231F4A15681F4AAB421E
:4056800003D113681E4B1C7004E012681D4DD2B2EA540B601C4B1B680342E8D104221B4B1A601B4B1B689B071FD50F20194C1A4A21681368994210D013680133202B00D1C2
:4056C00000231649164DC95CC9B229601360154B1B680340082BEBD104E00221124A13688B4313600222114B1A6070BD54020020CC0F064024040020DC0300204003064067
:40570000210400200004002008030640C00F06408C0F0640D8030020D4030020E00300204002064008020640880F0640800F064002B4714649084900095C49008E4402BCF5
:405740007047C04603B47146490840004900095A49008E4403BC7047002243088B4274D303098B425FD3030A8B4244D3030B8B4228D3030C8B420DD3FF22090212BA030C1A
:405780008B4202D31212090265D0030B8B4219D300E0090AC30B8B4201D3CB03C01A5241830B8B4201D38B03C01A5241430B8B4201D34B03C01A5241030B8B4201D30B03EE
:4057C000C01A5241C30A8B4201D3CB02C01A5241830A8B4201D38B02C01A5241430A8B4201D34B02C01A5241030A8B4201D30B02C01A5241CDD2C3098B4201D3CB01C01AEA
:40580000524183098B4201D38B01C01A524143098B4201D34B01C01A524103098B4201D30B01C01A5241C3088B4201D3CB00C01A524183088B4201D38B00C01A52414308D0
:405840008B4201D34B00C01A5241411A00D20146524110467047FFE701B5002000F0F0F802BDC0460029F7D076E7704703460B437FD4002243088B4274D303098B425FD3E8
:40588000030A8B4244D3030B8B4228D3030C8B420DD3FF22090212BA030C8B4202D31212090265D0030B8B4219D300E0090AC30B8B4201D3CB03C01A5241830B8B4201D3C5
:4058C0008B03C01A5241430B8B4201D34B03C01A5241030B8B4201D30B03C01A5241C30A8B4201D3CB02C01A5241830A8B4201D38B02C01A5241430A8B4201D34B02C01AF4
:405900005241030A8B4201D30B02C01A5241CDD2C3098B4201D3CB01C01A524183098B4201D38B01C01A524143098B4201D34B01C01A524103098B4201D30B01C01A524175
:40594000C3088B4201D3CB00C01A524183088B4201D38B00C01A524143088B4201D34B00C01A5241411A00D201465241104670475DE0CA0F00D04942031000D3404253403B
:4059800000229C4603098B422DD3030A8B4212D3FC22890112BA030A8B420CD3890192118B4208D3890192118B4204D389013AD0921100E08909C3098B4201D3CB01C01ABC
:4059C000524183098B4201D38B01C01A524143098B4201D34B01C01A524103098B4201D30B01C01A5241C3088B4201D3CB00C01A524183088B4201D38B00C01A5241D9D2AF
:405A000043088B4201D34B00C01A5241411A00D20146634652415B10104601D34042002B00D54942704763465B1000D3404201B5002000F005F802BD0029F8D016E7704729
:405A40007047C046002B11D1002A0FD1002900D1002802D00021C943081C07B4024802A14018029003BDC046D9FFFFFF03B4684601B5029800F032F8019B9E4602B00CBC16
:405A80007047C046F0B54F464646C0B41604360C9946330005042C0C070C150C63437E436F4365431C0CAD1964199C46A64203D980235B02984647446346250CEF191D04CE
:405AC0004B464A4343432D0C240464199918C91920000CBC90469946F0BDC046F0B54D46564644465F46F0B4924683B004000D0099468B422FD82CD04946504600F0CCF8F6
:405B000029000600200000F0C7F8331A9846203B9B4600D574E053465A4693401F005346424693401E00AF4229D826D05B46A41BBD41002B00DA79E000220023009201938B
:405B400001235A4693400193012342469340009319E08242D0D900220023009201930C9B002B01D01C605D600098019903B03CBC90469946A246AB46F0BDA342D6D900226D
:405B80000023009201934346002BE8D0FB0772081A4346467B080EE0AB4201D1A2420CD8A41A9D41012024196D410021013E24184D41002E06D0AB42EED9013E24196D411F
:405BC000002EF8D15B460098019900196941002B22DB2B005A46D3402A004446E2401C005B461500002B2CDB26009E40330026004746BE403200801A994100900191AEE7F3
:405C0000424620239B1A5246DA40414613004A468A4017001F4382E7424620239B1A2A0046469A402300F3401343D5E74246202300219B1A0022009101920122DA4001922D
:405C400082E74246202326009B1ADE402F00B446974066463B003343C9E7C0461C2101231B04984201D3000C10391B0A984201D3000A08391B09984201D30009043902A287
:405C8000105C40187047C0460403020201010101000000000000000010B5002903D1FFF7DDFF203002E0081CFFF7D8FF10BDC046014B18687047C046BC0100200E4B70B5E6
:405CC00000251E000D4CE41AA410A54204D0AB00F35898470135F8E701F038FF084B00251E00084CE41AA410A54204D0AB00F35898470135F8E770BD587B0000587B000075
:405D0000587B0000607B0000002310B59A4203D0CC5CC4540133F9E710BD03008218934202D019700133FAE770470000F0B51E00454B87B01B680192029308220B00059065
:405D400003911C7802995D1C09194878104001D02B00F6E72D2C04D19D1C5C780123009304E000902B2C01D15C789D1C002E02D0102E0AD162E0302C5ED120222B7893439F
:405D8000582B54D110266C780235009F31007B1E9F412E4BFF183800FFF764FD380004913100FFF7D9FC00230322070094461800029A121951780422114201D0303C07E04B
:405DC0006246114017D03722012900D02032A41AA64210DD5A1C0BD0B84207D802D1049B9C4203DC70430123201801E001235B422C780135DCE75A1C0BD10098059A431EFA
:405E00009841124BC01822231360019B002B0AD117E0009A002A00D04042019A002A10D0039A002B00D06A1E019B1A6009E03024002EAAD10826A8E70A26A6E7302C9CD0EA
:405E4000A3E707B0F0BDC046C0010020FFFFFF7F10B513000A00010002480068FFF766FF10BDC046BC0100200000000070FCFF7F01000000150180961180FFB103012C2D7C
:405E8000B203012C2DB306012C2D012C2DB40107C003A20284C101C5C2020A00C3028A2AC4028AEEC5010E20003601A83A01052A040000007F2B040000007FE010021C0730
:405EC000123732292D29252B3900010310E110031D07062E2C292D2E2E373F0000021013800A2980640000002C632C632C632C63139D139D139D139D7DEF7DEF7DEF7DEF03
:405F00002C632C632C632C63FFFFFFFF4D6B4D6B1CE71CE7139D139D2C632C632C632C63139D139D139D139D7DEF7DEF7DEF7DEF2C632C632C632C63FFFFFFFF4D6B4D6BFF
:405F40001CE71CE7139D139D2C632C632C632C63FFFFFFFF4D6B4D6B1CE71CE7139D139D9C5F00000000170028002C003F000000000000007C6D0000000007000C003000DC
:405F80003600000000000000FC680000000005000C0020007F0000000000000000000000000000000000000000000000000000000000000000000000000000000000000097
:405FC00000000000000000000000000000000000000000000000000000000000000000000000000000000000000000000000000000000000000000000000000000000000A1
:406000000000000000000000000000000000000000000000000000000000000000000000000000000000000000000000000000000000000000000000000000000000000060
:4060400000000000000000000000F0FF0FF0FF0FF0FF0F00000000000000000000000000000000000000000000000000000000000000000000000000000000000000000026
:4060800000000000000000000000000000000000000000000000000000000000000000000000000000000000000000000000000000000000000000000000000000000000E0
:4060C0000000000000000000000000000000000000000000000000000000007E00007E00007E00007E00007E00007E000000000000000000000000000000000000000000AC
:406100000000000000000000007000003800003800001C00001C00000E00000E00000700000700800300800300C00100C00100E00000E000007000007000003800003C0081
:40614000001C00000E00000E00000700000700800300800300C00100C00100E00000E000007000007000003800003800001C00001C00000E000000000000000000000000FB
:406180000000000000007E0080FF01C0FF03E0C307F0810FF0000F78001E78001E78001E38001C3C003C3C003C3C003C3C003C3C003C3C003C3C003C3C003C3C003C3C006C
:4061C0003C38001C78001E78001E78001EF0000FF0810FE0C307C0FF0380FF01007E0000000000000000000000000000000000000000000000000000000000000000600004
:40620000007C00807F00F87F00F87B0018780000780000780000780000780000780000780000780000780000780000780000780000780000780000780000780000780000E9
:406240007800007800007800007800F8FF7FF8FF7FF8FF7F000000000000000000000000000000000000000000000000000000000000000000803F00F0FF00F0FF0170E0EE
:406280000310C00300800700800700800700800700800700800700C00300C00300E00100F000007800003C00001E00000F00800700800300C00300E00100F00000F0000018
:4062C000F80000F8FF07F8FF07F8FF07000000000000000000000000000000000000000000000000000000000000000000807F00E0FF03E0FF07E0C00700800F00000F00A0
:40630000000F00000F00000F00800700800700E00300FF0000FF0000FF0300E00700800F00000F00001E00001E00001E00001E00001E00001E00000F00800FE0C007E0FFE2
:4063400003E0FF01807F0000000000000000000000000000000000000000000000000000000000000000C00300E00300F00300F00300F80300FC0300DC0300CE0300CF0333
:4063800000C70380C303C0C303C0C103E0C003F0C00370C00338C0033CC003FCFF3FFCFF3FFCFF3F00C00300C00300C00300C00300C00300C00300C00300C003000000007A
:4063C0000000000000000000000000000000000000000000000000000000000000C0FF07C0FF07C0FF07C00100C00100C00100C00100C00100C00100C00100C01F00C07FE6
:4064000000C0FF0100F00300C00700800700800700000F00000F00000F00000F00000F00000F00800F00800700C00760E003E0FF01E0FF00803F00000000000000000000DC
:4064400000000000000000000000000000000000000000000000F80300FE0F00FF0F800F0EC00300E00100E00100F00000F00000F0000078000078F80178FE0378FF0FF834
:40648000830FF8011FF8001EF8003EF8003C78003C78003CF0003CF0003CF0001CE0011EE0011FC0870F80FF0700FF0300FC0000000000000000000000000000000000000D
:4064C00000000000000000000000000000F0FF1FF0FF1FF0FF1FF0FF1F00000E00000E00000700800700800300C00300C00100E00100E00000F000007000007800003800E2
:40650000003C00001C00001E00000E00000F00000F00800700800700800700C00300C00300C0030000000000000000000000000000000000000000000000000000000000DB
:40654000000000000000FE0180FF07C0FF0FE0830FF0011FF0001EF0001EF0001EF0011EF0010FE08307C0CF0380FF0100FF0080FF01C0FB07E0E10FF0C01FF0001F78002A
:406580003E78003E78003C78003C78003CF8003CF0011EF0830FE0FF0780FF0300FE00000000000000000000000000000000000000000000000000000000000000007E0022
:4065C00080FF01C0FF07E0C307F0010FF0000F70001E78001E78001E78003C78003C78003EF8003EF0003EF0013FE0833FC0FF3D80FF3C003F3C00003C00001E00001E00F4
:40660000001E00000F00000F008007E0E003E0FF01E0FF00803F00000000000000000000000000000000000000000000000000000000000000000000000000000000000056
:4066400000000000000000000000000000007E00007E00007E00007E00007E00007E00000000000000000000000000000000000000000000000000000000007E00007E002A
:40668000007E00007E00007E00007E0000000000000000000000000000000000000000000000000000000000000000000000000000000000000000000000000000000000E2
:4066C0000000000000007E00007E00007E00007E00007E00007E00000000000000000000000000000000000000000000000000000000007E00007E00007E00007E00007E30
:4067000000007E00007800007800003800003C00001E0000060000000000000000000000000000000000000000000000000000000000000000000000000000000000002033
:4067400000003800003E00801F00E00700F00100FC00003F00C00F00F00300FC0000F00300C00F00003F0000FC0000F00100E00700801F00003E0000380000200000000029
:4067800000000000000000000000000000000000000000000000000000000000000000000000000000000000000000000000000000000000000000000000000000000000D9
:4067C00000000000FCFF3FFCFF3FFCFF3F000000000000000000000000FCFF3FFCFF3FFCFF3F0000000000000000000000000000000000000000000000000000000000003D
:406800000000000000000000000000000000000000000000000000000000000000000000000000000000000000000000000400001C00007C0000F80100E00700800F00004D
:406840003F0000FC0000F00300C00F00003F00C00F00F00300FC00003F00800F00E00700F801007C00001C00000400000000000000000000000000000000000000000000D4
:4068800000000000000000000000000000C0FF00F8FF03F8FF0F38C00F38001F38001E38001E00001E00001E00000F00800700C00300F00100F800003C00001E00001E0019
:4068C000000F00000F00000F00000F00000000000000000000000000000F00000F00000F00000F000000000000000000000000000000000000000000000000000000000020
:4069000000000000000000000004040404040400040400000A0A0A0A0000000000000000000A0A1F0A0A1F0A0A000000000206090102040809060400000B0B04040202023E
:406940000D0D00000002050505021509091600000C0C08040000000000000000000402020202020202040000000204040404040404020000000004150E0E15040000000005
:4069800000000004041F04040000000000000000000000000606040200000000000F000000000000000000000000000006060000000808040402020201010000000E09093B
:4069C00009090909090700000004060504040404040F00000006090908040201010F000000060908080608080906000000080C0A0A090F0808080000000F01010107080835
:406A000009060000000C02010709090909060000000F080808040402020200000006090909060909090600000006090909090E08040300000000000006060000060600002B
:406A400000000000060600000606040200000804020101020408000000000000000F000F000000000000010204080804020100000006090908040400040400000006090956
:406A8000090D0D01010E000000060909090F090909090000000709090907090909070000000609090101010109060000000709090909090909070000000F0101010F010169
:406AC000010F0000000F0101010F0101010100000006090901010D090906000000090909090F090909090000000E040404040404040E0000000E0404040404050502000065
:406B00000009090505030505090900000001010101010101010F00000009090F0F090909090900000009090B0B0D0D090909000000060909090909090906000000070909E5
:406B40000907010101010000000609090909090909060408000709090907030509090000000609090106080909060000001F040404040404040400000009090909090909AA
:406B8000090600000009090909090A0A04040000000909090909090F09090000000909090606060909090000001111110A0A040404040000000F080404020201010F000053
:406BC00000060202020202020206000000010102020404040808000000060404040404040406000000040A00000000000000000000000000000000000000001F06060204F2
:406C000000000000000000000000000006080E09090E0000000101010709090909070000000000000E010101010E0000000808080E090909090E0000000000000609090F44
:406C4000010E0000000402020702020202020000000000000E090909090E08060001010107090909090900000000040004040404040E00000000040004040404040405021E
:406C80000001010109050303050900000006040404040404040E000000000000090F09090909000000000000050B09090909000000000000060909090906000000000000DF
:406CC0000709090909070101000000000E090909090E0808000000000D0A020202020000000000000609020409060000000002020702020202060000000000000909090990
:406D0000090E00000000000009090A0A0404000000000000090909090F0900000000000009090606090900000000000009090909090E0807000000000F080402010F00002B
:406D4000000402020201020202040000040404040004040404040000000204040408040404020000000A0500000000000000000000000000000000000000000000000000A7
:406D80000000000000000000080800080800082A1C49417F22223E222208082A1C49417F0000003636363636360000000000040C1C3C1C0C04000000004040202010100877
:406DC0000804040038393530353731313931303138383734313132393035303130343438373336373130343130363735383336363130353130313833363638313937383749
:406E0000353734383939313035363639373839383800000000000000636F70797269676874286329627950696F74725A617061727430312E32303138000000000001051558
:406E4000550D0A737473743D25640D0A006F6C623D25640D0A006F6C613D25640D0A00733267623D25640D0A00733267613D25640D0A006F7470773D25640D0A006F743D6C
:406E800025640D0A0053744772643D25640D0A0043533D25640D0A0066736163743D25640D0A0053473D25640D0A00FF7F3F1F0F070301FF7F3F1F0F0703010301010103A4
:406EC000010F070301000301000F070301000301017F3F1F0F07030100010F070301070301010101010101010103010101010F0703010F07030101010101001C00B200130F
:406F000000C80010000A0013000507D0000100000620050D0A55415254206563686F20004F4E0D0A004F46460D0A004A6F622044657461696C733A0D0A004C656E677468C8
:406F40003D25756D6D0D0A00436F756E743D2575207069656365730D0A00436F756E74456C61707365643D25750D0A0053746570732F6D6D3D25750D0A000D0A5069656366
:406F80006520232564206F7574206F662025642070726F647563656420696E2025646D73000D0A4A6F6220636F6D706C657465210D0A003E20000D0A4A6F62207061757348
:406FC0006564210D0A000D0A4A6F622061626F72746564210D0A00466163746F72792052657365742E2E2E0D0A00646F6E65210D0A00204645454420002146454544210001
:40700000524F424F2D5343484E415050490020456E746572207063733A200020456E746572206C656E67746820696E206D6D3A200050726F64756365643A20202020202082
:407040002000205245414459202000253130730052554E4E494E472000504155534544200020434F4D504C455445200041424F52544544004552524F5221200025356400DC
:40708000436F756E743A20253564706373004C656E6774683A202535646D6D002535730025642E25646B6D0025642E25646D00526571756972656400456C61707365642064
:4070C0000054696D6520656C61707365643A0054696D65206C6566743A202020002533646D696E20253264730042746E3A2000313000333534300032300041626F72740082
:40710000507265737320616E79206B65790023203D20456E746572202A203D2044656C2E0042746E3A204572726F72207265706F727400413439383800544D4332313330BD
:40714000004F4E004F46460053746570706572206472697665723A20004D6963726F73746570733A200043757420636F756E743A200055415254206C6F63616C20656368A5
:407180006F3A20004552524F52205245504F525400445249564552204552524F522047535441545B315D004449414730204C4F57004449414731204C4F57004F564552543F
:4071C000454D50204552524F52004D4F544F52205354414C4C00524F424F5F5343484E415050490D0A4175746F6D617465642057697265204375747465720D0A56322E34E1
:407200000D0A28632920323031382062792050696F7472205A61706172740D0A0048454C5020312F320023203D20456E746572206C656E677468205B6D6D5D002A203D2052
